{
  "contractName": "KriptyCoin",
  "abi": [
    {
      "inputs": [
        {
          "internalType": "address",
          "name": "_ownerAddress",
          "type": "address"
        },
        {
          "internalType": "address",
          "name": "_burnAddress",
          "type": "address"
        },
        {
          "internalType": "address",
          "name": "_devTeam",
          "type": "address"
        },
        {
          "internalType": "address",
          "name": "_airDrop",
          "type": "address"
        },
        {
          "internalType": "uint256",
          "name": "liqFee",
          "type": "uint256"
        },
        {
          "internalType": "uint256",
          "name": "holFee",
          "type": "uint256"
        }
      ],
      "stateMutability": "nonpayable",
      "type": "constructor"
    },
    {
      "anonymous": false,
      "inputs": [
        {
          "indexed": true,
          "internalType": "address",
          "name": "owner",
          "type": "address"
        },
        {
          "indexed": true,
          "internalType": "address",
          "name": "spender",
          "type": "address"
        },
        {
          "indexed": false,
          "internalType": "uint256",
          "name": "value",
          "type": "uint256"
        }
      ],
      "name": "Approval",
      "type": "event"
    },
    {
      "anonymous": false,
      "inputs": [
        {
          "indexed": true,
          "internalType": "address",
          "name": "previousOwner",
          "type": "address"
        },
        {
          "indexed": true,
          "internalType": "address",
          "name": "newOwner",
          "type": "address"
        }
      ],
      "name": "OwnershipTransferred",
      "type": "event"
    },
    {
      "anonymous": false,
      "inputs": [
        {
          "indexed": true,
          "internalType": "address",
          "name": "from",
          "type": "address"
        },
        {
          "indexed": true,
          "internalType": "address",
          "name": "to",
          "type": "address"
        },
        {
          "indexed": false,
          "internalType": "uint256",
          "name": "value",
          "type": "uint256"
        }
      ],
      "name": "Transfer",
      "type": "event"
    },
    {
      "inputs": [
        {
          "internalType": "address",
          "name": "owner",
          "type": "address"
        },
        {
          "internalType": "address",
          "name": "spender",
          "type": "address"
        }
      ],
      "name": "allowance",
      "outputs": [
        {
          "internalType": "uint256",
          "name": "",
          "type": "uint256"
        }
      ],
      "stateMutability": "view",
      "type": "function"
    },
    {
      "inputs": [
        {
          "internalType": "address",
          "name": "spender",
          "type": "address"
        },
        {
          "internalType": "uint256",
          "name": "amount",
          "type": "uint256"
        }
      ],
      "name": "approve",
      "outputs": [
        {
          "internalType": "bool",
          "name": "",
          "type": "bool"
        }
      ],
      "stateMutability": "nonpayable",
      "type": "function"
    },
    {
      "inputs": [],
      "name": "cap",
      "outputs": [
        {
          "internalType": "uint256",
          "name": "",
          "type": "uint256"
        }
      ],
      "stateMutability": "view",
      "type": "function"
    },
    {
      "inputs": [
        {
          "internalType": "address",
          "name": "",
          "type": "address"
        }
      ],
      "name": "claimedTokensFromPool",
      "outputs": [
        {
          "internalType": "uint256",
          "name": "",
          "type": "uint256"
        }
      ],
      "stateMutability": "view",
      "type": "function"
    },
    {
      "inputs": [],
      "name": "decimals",
      "outputs": [
        {
          "internalType": "uint8",
          "name": "",
          "type": "uint8"
        }
      ],
      "stateMutability": "view",
      "type": "function"
    },
    {
      "inputs": [
        {
          "internalType": "address",
          "name": "spender",
          "type": "address"
        },
        {
          "internalType": "uint256",
          "name": "subtractedValue",
          "type": "uint256"
        }
      ],
      "name": "decreaseAllowance",
      "outputs": [
        {
          "internalType": "bool",
          "name": "",
          "type": "bool"
        }
      ],
      "stateMutability": "nonpayable",
      "type": "function"
    },
    {
      "inputs": [
        {
          "internalType": "address",
          "name": "",
          "type": "address"
        }
      ],
      "name": "excludedAcc",
      "outputs": [
        {
          "internalType": "bool",
          "name": "",
          "type": "bool"
        }
      ],
      "stateMutability": "view",
      "type": "function"
    },
    {
      "inputs": [
        {
          "internalType": "address",
          "name": "spender",
          "type": "address"
        },
        {
          "internalType": "uint256",
          "name": "addedValue",
          "type": "uint256"
        }
      ],
      "name": "increaseAllowance",
      "outputs": [
        {
          "internalType": "bool",
          "name": "",
          "type": "bool"
        }
      ],
      "stateMutability": "nonpayable",
      "type": "function"
    },
    {
      "inputs": [],
      "name": "name",
      "outputs": [
        {
          "internalType": "string",
          "name": "",
          "type": "string"
        }
      ],
      "stateMutability": "view",
      "type": "function"
    },
    {
      "inputs": [],
      "name": "owner",
      "outputs": [
        {
          "internalType": "address",
          "name": "",
          "type": "address"
        }
      ],
      "stateMutability": "view",
      "type": "function"
    },
    {
      "inputs": [],
      "name": "releaseDate",
      "outputs": [
        {
          "internalType": "uint256",
          "name": "",
          "type": "uint256"
        }
      ],
      "stateMutability": "view",
      "type": "function"
    },
    {
      "inputs": [],
      "name": "renounceOwnership",
      "outputs": [],
      "stateMutability": "nonpayable",
      "type": "function"
    },
    {
      "inputs": [],
      "name": "symbol",
      "outputs": [
        {
          "internalType": "string",
          "name": "",
          "type": "string"
        }
      ],
      "stateMutability": "view",
      "type": "function"
    },
    {
      "inputs": [],
      "name": "totalSupply",
      "outputs": [
        {
          "internalType": "uint256",
          "name": "",
          "type": "uint256"
        }
      ],
      "stateMutability": "view",
      "type": "function"
    },
    {
      "inputs": [
        {
          "internalType": "address",
          "name": "sender",
          "type": "address"
        },
        {
          "internalType": "address",
          "name": "recipient",
          "type": "address"
        },
        {
          "internalType": "uint256",
          "name": "amount",
          "type": "uint256"
        }
      ],
      "name": "transferFrom",
      "outputs": [
        {
          "internalType": "bool",
          "name": "",
          "type": "bool"
        }
      ],
      "stateMutability": "nonpayable",
      "type": "function"
    },
    {
      "inputs": [
        {
          "internalType": "address",
          "name": "newOwner",
          "type": "address"
        }
      ],
      "name": "transferOwnership",
      "outputs": [],
      "stateMutability": "nonpayable",
      "type": "function"
    },
    {
      "inputs": [
        {
          "internalType": "address",
          "name": "recipient",
          "type": "address"
        },
        {
          "internalType": "uint256",
          "name": "amount",
          "type": "uint256"
        }
      ],
      "name": "transfer",
      "outputs": [
        {
          "internalType": "bool",
          "name": "",
          "type": "bool"
        }
      ],
      "stateMutability": "nonpayable",
      "type": "function"
    },
    {
      "inputs": [
        {
          "internalType": "address",
          "name": "swapPair",
          "type": "address"
        }
      ],
      "name": "_setSwapExclude",
      "outputs": [],
      "stateMutability": "nonpayable",
      "type": "function"
    },
    {
      "inputs": [
        {
          "internalType": "uint256",
          "name": "decimals",
          "type": "uint256"
        }
      ],
      "name": "capTokenSupply",
      "outputs": [],
      "stateMutability": "nonpayable",
      "type": "function"
    },
    {
      "inputs": [
        {
          "internalType": "address",
          "name": "kriptyAddress",
          "type": "address"
        }
      ],
      "name": "setKriptyGovToken",
      "outputs": [],
      "stateMutability": "nonpayable",
      "type": "function"
    },
    {
      "inputs": [
        {
          "internalType": "uint256",
          "name": "amount",
          "type": "uint256"
        }
      ],
      "name": "increaseBalance",
      "outputs": [],
      "stateMutability": "nonpayable",
      "type": "function"
    },
    {
      "inputs": [
        {
          "internalType": "address",
          "name": "account",
          "type": "address"
        }
      ],
      "name": "balanceOf",
      "outputs": [
        {
          "internalType": "uint256",
          "name": "",
          "type": "uint256"
        }
      ],
      "stateMutability": "view",
      "type": "function"
    }
  ],
  "bytecode": "0x6080604052670de0b6b3a7640000600e553480156200001d57600080fd5b5060405162002d6738038062002d67833981810160405260c08110156200004357600080fd5b81019080805190602001909291908051906020019092919080519060200190929190805190602001909291908051906020019092919080519060200190929190505050670de0b6b3a76400006040518060400160405280600a81526020017f4b7269707479436f696e000000000000000000000000000000000000000000008152506040518060400160405280600481526020017f4b52434f00000000000000000000000000000000000000000000000000000000815250816003908051906020019062000113929190620008f3565b5080600490805190602001906200012c929190620008f3565b506012600560006101000a81548160ff021916908360ff160217905550505060008111620001c2576040517f08c379a00000000000000000000000000000000000000000000000000000000081526004018080602001828103825260158152602001807f45524332304361707065643a206361702069732030000000000000000000000081525060200191505060405180910390fd5b80600681905550506000620001e56200032a640100000000026401000000009004565b905080600760006101000a81548173ffffffffffffffffffffffffffffffffffffffff021916908373ffffffffffffffffffffffffffffffffffffffff1602179055508073ffffffffffffffffffffffffffffffffffffffff16600073ffffffffffffffffffffffffffffffffffffffff167f8be0079c531659141344cd1fd0a4f28419497f9722a3daafe3b4186f6b6457e060405160405180910390a3506200029f600062000332640100000000026401000000009004565b620002c3308667058d15e17628000062000350640100000000026401000000009004565b620002e630856658d15e1762800062000350640100000000026401000000009004565b62000309308466b1a2bc2ec5000062000350640100000000026401000000009004565b81600c8190555080600d819055504260088190555050505050505062000999565b600033905090565b80600560006101000a81548160ff021916908360ff16021790555050565b600073ffffffffffffffffffffffffffffffffffffffff168373ffffffffffffffffffffffffffffffffffffffff161415620003d8576040517f08c379a000000000000000000000000000000000000000000000000000000000815260040180806020018281038252602581526020018062002d426025913960400191505060405180910390fd5b600073ffffffffffffffffffffffffffffffffffffffff168273ffffffffffffffffffffffffffffffffffffffff16141562000460576040517f08c379a000000000000000000000000000000000000000000000000000000000815260040180806020018281038252602381526020018062002cf96023913960400191505060405180910390fd5b6200047c83838362000647640100000000026401000000009004565b620004f88160405180606001604052806026815260200162002d1c602691396000808773ffffffffffffffffffffffffffffffffffffffff1673ffffffffffffffffffffffffffffffffffffffff168152602001908152602001600020546200066d640100000000026200156f17909291906401000000009004565b6000808573ffffffffffffffffffffffffffffffffffffffff1673ffffffffffffffffffffffffffffffffffffffff168152602001908152602001600020819055506200059b816000808573ffffffffffffffffffffffffffffffffffffffff1673ffffffffffffffffffffffffffffffffffffffff168152602001908152602001600020546200072b6401000000000262001629179091906401000000009004565b6000808473ffffffffffffffffffffffffffffffffffffffff1673ffffffffffffffffffffffffffffffffffffffff168152602001908152602001600020819055508173ffffffffffffffffffffffffffffffffffffffff168373ffffffffffffffffffffffffffffffffffffffff167fddf252ad1be2c89b69c2b068fc378daa952ba7f163c4a11628f55a4df523b3ef836040518082815260200191505060405180910390a3505050565b62000668838383620007b464010000000002620016b1176401000000009004565b505050565b60008383111582906200071e576040517f08c379a00000000000000000000000000000000000000000000000000000000081526004018080602001828103825283818151815260200191508051906020019080838360005b83811015620006e2578082015181840152602081019050620006c5565b50505050905090810190601f168015620007105780820380516001836020036101000a031916815260200191505b509250505060405180910390fd5b5082840390509392505050565b600080828401905083811015620007aa576040517f08c379a000000000000000000000000000000000000000000000000000000000815260040180806020018281038252601b8152602001807f536166654d6174683a206164646974696f6e206f766572666c6f77000000000081525060200191505060405180910390fd5b8091505092915050565b620007d5838383620008da640100000000026200178d176401000000009004565b600073ffffffffffffffffffffffffffffffffffffffff168373ffffffffffffffffffffffffffffffffffffffff161415620008d55762000824620008df640100000000026401000000009004565b6200085f8262000842620008e9640100000000026401000000009004565b6200072b6401000000000262001629179091906401000000009004565b1115620008d4576040517f08c379a00000000000000000000000000000000000000000000000000000000081526004018080602001828103825260198152602001807f45524332304361707065643a206361702065786365656465640000000000000081525060200191505060405180910390fd5b5b505050565b505050565b6000600654905090565b6000600254905090565b828054600181600116156101000203166002900490600052602060002090601f016020900481019282601f106200093657805160ff191683800117855562000967565b8280016001018555821562000967579182015b828111156200096657825182559160200191906001019062000949565b5b5090506200097691906200097a565b5090565b5b80821115620009955760008160009055506001016200097b565b5090565b61235080620009a96000396000f3fe608060405234801561001057600080fd5b506004361061015f576000357c010000000000000000000000000000000000000000000000000000000090048063715018a6116100d5578063b9e3e2db11610099578063b9e3e2db1461063b578063d4013aeb14610659578063dd62ed3e1461069d578063e58b07ba14610715578063f2fde38b14610743578063fddb9895146107875761015f565b8063715018a6146104b25780638da5cb5b146104bc57806395d89b41146104f0578063a457c2d714610573578063a9059cbb146105d75761015f565b8063313ce56711610127578063313ce56714610345578063355274ea1461036657806339509351146103845780633e4ccb40146103e857806340e52ef41461041657806370a082311461045a5761015f565b806306fdde0314610164578063095ea7b3146101e75780630edb02bd1461024b57806318160ddd146102a357806323b872dd146102c1575b600080fd5b61016c6107e1565b6040518080602001828103825283818151815260200191508051906020019080838360005b838110156101ac578082015181840152602081019050610191565b50505050905090810190601f1680156101d95780820380516001836020036101000a031916815260200191505b509250505060405180910390f35b610233600480360360408110156101fd57600080fd5b81019080803573ffffffffffffffffffffffffffffffffffffffff16906020019092919080359060200190929190505050610883565b60405180821515815260200191505060405180910390f35b61028d6004803603602081101561026157600080fd5b81019080803573ffffffffffffffffffffffffffffffffffffffff1690602001909291905050506108a1565b6040518082815260200191505060405180910390f35b6102ab6108b9565b6040518082815260200191505060405180910390f35b61032d600480360360608110156102d757600080fd5b81019080803573ffffffffffffffffffffffffffffffffffffffff169060200190929190803573ffffffffffffffffffffffffffffffffffffffff169060200190929190803590602001909291905050506108c3565b60405180821515815260200191505060405180910390f35b61034d61099c565b604051808260ff16815260200191505060405180910390f35b61036e6109b3565b6040518082815260200191505060405180910390f35b6103d06004803603604081101561039a57600080fd5b81019080803573ffffffffffffffffffffffffffffffffffffffff169060200190929190803590602001909291905050506109bd565b60405180821515815260200191505060405180910390f35b610414600480360360208110156103fe57600080fd5b8101908080359060200190929190505050610a70565b005b6104586004803603602081101561042c57600080fd5b81019080803573ffffffffffffffffffffffffffffffffffffffff169060200190929190505050610b29565b005b61049c6004803603602081101561047057600080fd5b81019080803573ffffffffffffffffffffffffffffffffffffffff169060200190929190505050610c1c565b6040518082815260200191505060405180910390f35b6104ba610c7e565b005b6104c4610dee565b604051808273ffffffffffffffffffffffffffffffffffffffff16815260200191505060405180910390f35b6104f8610e18565b6040518080602001828103825283818151815260200191508051906020019080838360005b8381101561053857808201518184015260208101905061051d565b50505050905090810190601f1680156105655780820380516001836020036101000a031916815260200191505b509250505060405180910390f35b6105bf6004803603604081101561058957600080fd5b81019080803573ffffffffffffffffffffffffffffffffffffffff16906020019092919080359060200190929190505050610eba565b60405180821515815260200191505060405180910390f35b610623600480360360408110156105ed57600080fd5b81019080803573ffffffffffffffffffffffffffffffffffffffff16906020019092919080359060200190929190505050610f87565b60405180821515815260200191505060405180910390f35b61064361110a565b6040518082815260200191505060405180910390f35b61069b6004803603602081101561066f57600080fd5b81019080803573ffffffffffffffffffffffffffffffffffffffff169060200190929190505050611110565b005b6106ff600480360360408110156106b357600080fd5b81019080803573ffffffffffffffffffffffffffffffffffffffff169060200190929190803573ffffffffffffffffffffffffffffffffffffffff16906020019092919050505061121a565b6040518082815260200191505060405180910390f35b6107416004803603602081101561072b57600080fd5b81019080803590602001909291905050506112a1565b005b6107856004803603602081101561075957600080fd5b81019080803573ffffffffffffffffffffffffffffffffffffffff16906020019092919050505061135a565b005b6107c96004803603602081101561079d57600080fd5b81019080803573ffffffffffffffffffffffffffffffffffffffff16906020019092919050505061154f565b60405180821515815260200191505060405180910390f35b606060038054600181600116156101000203166002900480601f0160208091040260200160405190810160405280929190818152602001828054600181600116156101000203166002900480156108795780601f1061084e57610100808354040283529160200191610879565b820191906000526020600020905b81548152906001019060200180831161085c57829003601f168201915b5050505050905090565b6000610897610890611792565b848461179a565b6001905092915050565b600a6020528060005260406000206000915090505481565b6000600254905090565b60006108d0848484611991565b610991846108dc611792565b61098c8560405180606001604052806028815260200161226460289139600160008b73ffffffffffffffffffffffffffffffffffffffff1673ffffffffffffffffffffffffffffffffffffffff1681526020019081526020016000206000610942611792565b73ffffffffffffffffffffffffffffffffffffffff1673ffffffffffffffffffffffffffffffffffffffff1681526020019081526020016000205461156f9092919063ffffffff16565b61179a565b600190509392505050565b6000600560009054906101000a900460ff16905090565b6000600654905090565b6000610a666109ca611792565b84610a6185600160006109db611792565b73ffffffffffffffffffffffffffffffffffffffff1673ffffffffffffffffffffffffffffffffffffffff16815260200190815260200160002060008973ffffffffffffffffffffffffffffffffffffffff1673ffffffffffffffffffffffffffffffffffffffff1681526020019081526020016000205461162990919063ffffffff16565b61179a565b6001905092915050565b601060009054906101000a900473ffffffffffffffffffffffffffffffffffffffff1673ffffffffffffffffffffffffffffffffffffffff163373ffffffffffffffffffffffffffffffffffffffff1614610b16576040517f08c379a000000000000000000000000000000000000000000000000000000000815260040180806020018281038252602881526020018061221b6028913960400191505060405180910390fd5b80600b6000828254019250508190555050565b610b31611792565b73ffffffffffffffffffffffffffffffffffffffff16610b4f610dee565b73ffffffffffffffffffffffffffffffffffffffff1614610bd8576040517f08c379a00000000000000000000000000000000000000000000000000000000081526004018080602001828103825260208152602001807f4f776e61626c653a2063616c6c6572206973206e6f7420746865206f776e657281525060200191505060405180910390fd5b80601060006101000a81548173ffffffffffffffffffffffffffffffffffffffff021916908373ffffffffffffffffffffffffffffffffffffffff16021790555050565b600080610c2883610c1c565b90506000600e54600b54830281610c3b57fe5b0490506001600f548281610c4b57fe5b0410610c6857600f5481830181610c5e57fe5b0492505050610c79565b600f548281610c7357fe5b04925050505b919050565b610c86611792565b73ffffffffffffffffffffffffffffffffffffffff16610ca4610dee565b73ffffffffffffffffffffffffffffffffffffffff1614610d2d576040517f08c379a00000000000000000000000000000000000000000000000000000000081526004018080602001828103825260208152602001807f4f776e61626c653a2063616c6c6572206973206e6f7420746865206f776e657281525060200191505060405180910390fd5b600073ffffffffffffffffffffffffffffffffffffffff16600760009054906101000a900473ffffffffffffffffffffffffffffffffffffffff1673ffffffffffffffffffffffffffffffffffffffff167f8be0079c531659141344cd1fd0a4f28419497f9722a3daafe3b4186f6b6457e060405160405180910390a36000600760006101000a81548173ffffffffffffffffffffffffffffffffffffffff021916908373ffffffffffffffffffffffffffffffffffffffff160217905550565b6000600760009054906101000a900473ffffffffffffffffffffffffffffffffffffffff16905090565b606060048054600181600116156101000203166002900480601f016020809104026020016040519081016040528092919081815260200182805460018160011615610100020316600290048015610eb05780601f10610e8557610100808354040283529160200191610eb0565b820191906000526020600020905b815481529060010190602001808311610e9357829003601f168201915b5050505050905090565b6000610f7d610ec7611792565b84610f78856040518060600160405280602581526020016122f66025913960016000610ef1611792565b73ffffffffffffffffffffffffffffffffffffffff1673ffffffffffffffffffffffffffffffffffffffff16815260200190815260200160002060008a73ffffffffffffffffffffffffffffffffffffffff1673ffffffffffffffffffffffffffffffffffffffff1681526020019081526020016000205461156f9092919063ffffffff16565b61179a565b6001905092915050565b6000600960003373ffffffffffffffffffffffffffffffffffffffff1673ffffffffffffffffffffffffffffffffffffffff16815260200190815260200160002060009054906101000a900460ff16158061102c5750600960008473ffffffffffffffffffffffffffffffffffffffff1673ffffffffffffffffffffffffffffffffffffffff16815260200190815260200160002060009054906101000a900460ff16155b1561107657600061104961104284600c54611c52565b6064611cd8565b90506110553382611d61565b80830392506002818161106457fe5b04600b60008282540192505081905550505b61108c611081611792565b84600f548502611991565b6000600e54600b5461109d33610c1c565b02816110a557fe5b04905080600a60003373ffffffffffffffffffffffffffffffffffffffff1673ffffffffffffffffffffffffffffffffffffffff168152602001908152602001600020600082825401925050819055506110ff3382611f19565b600191505092915050565b60085481565b611118611792565b73ffffffffffffffffffffffffffffffffffffffff16611136610dee565b73ffffffffffffffffffffffffffffffffffffffff16146111bf576040517f08c379a00000000000000000000000000000000000000000000000000000000081526004018080602001828103825260208152602001807f4f776e61626c653a2063616c6c6572206973206e6f7420746865206f776e657281525060200191505060405180910390fd5b6001600960008373ffffffffffffffffffffffffffffffffffffffff1673ffffffffffffffffffffffffffffffffffffffff16815260200190815260200160002060006101000a81548160ff02191690831515021790555050565b6000600160008473ffffffffffffffffffffffffffffffffffffffff1673ffffffffffffffffffffffffffffffffffffffff16815260200190815260200160002060008373ffffffffffffffffffffffffffffffffffffffff1673ffffffffffffffffffffffffffffffffffffffff16815260200190815260200160002054905092915050565b6112a9611792565b73ffffffffffffffffffffffffffffffffffffffff166112c7610dee565b73ffffffffffffffffffffffffffffffffffffffff1614611350576040517f08c379a00000000000000000000000000000000000000000000000000000000081526004018080602001828103825260208152602001807f4f776e61626c653a2063616c6c6572206973206e6f7420746865206f776e657281525060200191505060405180910390fd5b80600f8190555050565b611362611792565b73ffffffffffffffffffffffffffffffffffffffff16611380610dee565b73ffffffffffffffffffffffffffffffffffffffff1614611409576040517f08c379a00000000000000000000000000000000000000000000000000000000081526004018080602001828103825260208152602001807f4f776e61626c653a2063616c6c6572206973206e6f7420746865206f776e657281525060200191505060405180910390fd5b600073ffffffffffffffffffffffffffffffffffffffff168173ffffffffffffffffffffffffffffffffffffffff16141561148f576040517f08c379a00000000000000000000000000000000000000000000000000000000081526004018080602001828103825260268152602001806121ad6026913960400191505060405180910390fd5b8073ffffffffffffffffffffffffffffffffffffffff16600760009054906101000a900473ffffffffffffffffffffffffffffffffffffffff1673ffffffffffffffffffffffffffffffffffffffff167f8be0079c531659141344cd1fd0a4f28419497f9722a3daafe3b4186f6b6457e060405160405180910390a380600760006101000a81548173ffffffffffffffffffffffffffffffffffffffff021916908373ffffffffffffffffffffffffffffffffffffffff16021790555050565b60096020528060005260406000206000915054906101000a900460ff1681565b600083831115829061161c576040517f08c379a00000000000000000000000000000000000000000000000000000000081526004018080602001828103825283818151815260200191508051906020019080838360005b838110156115e15780820151818401526020810190506115c6565b50505050905090810190601f16801561160e5780820380516001836020036101000a031916815260200191505b509250505060405180910390fd5b5082840390509392505050565b6000808284019050838110156116a7576040517f08c379a000000000000000000000000000000000000000000000000000000000815260040180806020018281038252601b8152602001807f536166654d6174683a206164646974696f6e206f766572666c6f77000000000081525060200191505060405180910390fd5b8091505092915050565b6116bc83838361178d565b600073ffffffffffffffffffffffffffffffffffffffff168373ffffffffffffffffffffffffffffffffffffffff161415611788576116f96109b3565b611713826117056108b9565b61162990919063ffffffff16565b1115611787576040517f08c379a00000000000000000000000000000000000000000000000000000000081526004018080602001828103825260198152602001807f45524332304361707065643a206361702065786365656465640000000000000081525060200191505060405180910390fd5b5b505050565b505050565b600033905090565b600073ffffffffffffffffffffffffffffffffffffffff168373ffffffffffffffffffffffffffffffffffffffff161415611820576040517f08c379a00000000000000000000000000000000000000000000000000000000081526004018080602001828103825260248152602001806122d26024913960400191505060405180910390fd5b600073ffffffffffffffffffffffffffffffffffffffff168273ffffffffffffffffffffffffffffffffffffffff1614156118a6576040517f08c379a00000000000000000000000000000000000000000000000000000000081526004018080602001828103825260228152602001806121d36022913960400191505060405180910390fd5b80600160008573ffffffffffffffffffffffffffffffffffffffff1673ffffffffffffffffffffffffffffffffffffffff16815260200190815260200160002060008473ffffffffffffffffffffffffffffffffffffffff1673ffffffffffffffffffffffffffffffffffffffff168152602001908152602001600020819055508173ffffffffffffffffffffffffffffffffffffffff168373ffffffffffffffffffffffffffffffffffffffff167f8c5be1e5ebec7d5bd14f71427d1e84f3dd0314c0f7b2291e5b200ac8c7c3b925836040518082815260200191505060405180910390a3505050565b600073ffffffffffffffffffffffffffffffffffffffff168373ffffffffffffffffffffffffffffffffffffffff161415611a17576040517f08c379a00000000000000000000000000000000000000000000000000000000081526004018080602001828103825260258152602001806122ad6025913960400191505060405180910390fd5b600073ffffffffffffffffffffffffffffffffffffffff168273ffffffffffffffffffffffffffffffffffffffff161415611a9d576040517f08c379a00000000000000000000000000000000000000000000000000000000081526004018080602001828103825260238152602001806121686023913960400191505060405180910390fd5b611aa88383836120d4565b611b13816040518060600160405280602681526020016121f5602691396000808773ffffffffffffffffffffffffffffffffffffffff1673ffffffffffffffffffffffffffffffffffffffff1681526020019081526020016000205461156f9092919063ffffffff16565b6000808573ffffffffffffffffffffffffffffffffffffffff1673ffffffffffffffffffffffffffffffffffffffff16815260200190815260200160002081905550611ba6816000808573ffffffffffffffffffffffffffffffffffffffff1673ffffffffffffffffffffffffffffffffffffffff1681526020019081526020016000205461162990919063ffffffff16565b6000808473ffffffffffffffffffffffffffffffffffffffff1673ffffffffffffffffffffffffffffffffffffffff168152602001908152602001600020819055508173ffffffffffffffffffffffffffffffffffffffff168373ffffffffffffffffffffffffffffffffffffffff167fddf252ad1be2c89b69c2b068fc378daa952ba7f163c4a11628f55a4df523b3ef836040518082815260200191505060405180910390a3505050565b600080831415611c655760009050611cd2565b6000828402905082848281611c7657fe5b0414611ccd576040517f08c379a00000000000000000000000000000000000000000000000000000000081526004018080602001828103825260218152602001806122436021913960400191505060405180910390fd5b809150505b92915050565b6000808211611d4f576040517f08c379a000000000000000000000000000000000000000000000000000000000815260040180806020018281038252601a8152602001807f536166654d6174683a206469766973696f6e206279207a65726f00000000000081525060200191505060405180910390fd5b818381611d5857fe5b04905092915050565b600073ffffffffffffffffffffffffffffffffffffffff168273ffffffffffffffffffffffffffffffffffffffff161415611de7576040517f08c379a000000000000000000000000000000000000000000000000000000000815260040180806020018281038252602181526020018061228c6021913960400191505060405180910390fd5b611e528160405180606001604052806022815260200161218b602291396000808673ffffffffffffffffffffffffffffffffffffffff1673ffffffffffffffffffffffffffffffffffffffff1681526020019081526020016000205461156f9092919063ffffffff16565b6000808473ffffffffffffffffffffffffffffffffffffffff1673ffffffffffffffffffffffffffffffffffffffff16815260200190815260200160002081905550611ea9816002546120e490919063ffffffff16565b600281905550600073ffffffffffffffffffffffffffffffffffffffff168273ffffffffffffffffffffffffffffffffffffffff167fddf252ad1be2c89b69c2b068fc378daa952ba7f163c4a11628f55a4df523b3ef836040518082815260200191505060405180910390a35050565b600073ffffffffffffffffffffffffffffffffffffffff168273ffffffffffffffffffffffffffffffffffffffff161415611fbc576040517f08c379a000000000000000000000000000000000000000000000000000000000815260040180806020018281038252601f8152602001807f45524332303a206d696e7420746f20746865207a65726f20616464726573730081525060200191505060405180910390fd5b611fd18160025461162990919063ffffffff16565b600281905550612028816000808573ffffffffffffffffffffffffffffffffffffffff1673ffffffffffffffffffffffffffffffffffffffff1681526020019081526020016000205461162990919063ffffffff16565b6000808473ffffffffffffffffffffffffffffffffffffffff1673ffffffffffffffffffffffffffffffffffffffff168152602001908152602001600020819055508173ffffffffffffffffffffffffffffffffffffffff16600073ffffffffffffffffffffffffffffffffffffffff167fddf252ad1be2c89b69c2b068fc378daa952ba7f163c4a11628f55a4df523b3ef836040518082815260200191505060405180910390a35050565b6120df8383836116b1565b505050565b60008282111561215c576040517f08c379a000000000000000000000000000000000000000000000000000000000815260040180806020018281038252601e8152602001807f536166654d6174683a207375627472616374696f6e206f766572666c6f77000081525060200191505060405180910390fd5b81830390509291505056fe45524332303a207472616e7366657220746f20746865207a65726f206164647265737345524332303a206275726e20616d6f756e7420657863656564732062616c616e63654f776e61626c653a206e6577206f776e657220697320746865207a65726f206164647265737345524332303a20617070726f766520746f20746865207a65726f206164647265737345524332303a207472616e7366657220616d6f756e7420657863656564732062616c616e63654f6e6c79204b726970747920746f6b656e2063616e2063616c6c20746869732066756e6374696f6e536166654d6174683a206d756c7469706c69636174696f6e206f766572666c6f7745524332303a207472616e7366657220616d6f756e74206578636565647320616c6c6f77616e636545524332303a206275726e2066726f6d20746865207a65726f206164647265737345524332303a207472616e736665722066726f6d20746865207a65726f206164647265737345524332303a20617070726f76652066726f6d20746865207a65726f206164647265737345524332303a2064656372656173656420616c6c6f77616e63652062656c6f77207a65726fa26469706673582212209d86744ca43e48aee095587d61d6646155e7692ad9bd88ad32db79820446ca0b64736f6c6343000700003345524332303a207472616e7366657220746f20746865207a65726f206164647265737345524332303a207472616e7366657220616d6f756e7420657863656564732062616c616e636545524332303a207472616e736665722066726f6d20746865207a65726f2061646472657373",
  "immutableReferences": {},
  "source": "import \"@openzeppelin/contracts/token/ERC20/ERC20Capped.sol\";\r\nimport \"@openzeppelin/contracts/access/Ownable.sol\";\r\nimport \"@openzeppelin/contracts/math/SafeMath.sol\";\r\n\r\ncontract KriptyCoin is ERC20Capped, Ownable {\r\n\t\r\n\tuint256 public releaseDate;\r\n\tmapping (address => bool) public excludedAcc;\r\n\tmapping (address => uint) public claimedTokensFromPool;\r\n\tuint private _txFeeStacking;\r\n\tuint private _liqFee;\r\n\tuint private _holFee;\r\n\tuint256 _precision = 1*10**18;\r\n\tuint private capToken;\r\n\taddress kriptyGovToken;\r\n\r\n\r\n\tconstructor(\r\n\t\taddress _ownerAddress,\r\n\t\taddress _burnAddress,\r\n\t\taddress _devTeam,\r\n\t\taddress _airDrop,\r\n\t\tuint liqFee,\r\n\t\tuint holFee\r\n\t)\r\n\r\n\tERC20(\"KriptyCoin\", \"KRCO\")\r\n\tERC20Capped(1000000000000000000)\r\n\tpublic{\r\n\t\t_setupDecimals(0);\r\n\t\t_transfer(address(this), _burnAddress, 400000000000000000);\r\n\t\t_transfer(address(this), _devTeam, 25000000000000000);\r\n\t\t_transfer(address(this), _airDrop, 50000000000000000);\r\n\t\t_liqFee = liqFee;\r\n\t\t_holFee = holFee;\r\n\t\treleaseDate  = block.timestamp;\r\n\t}\r\n\r\n\tfunction transfer(address recipient, uint256 amount) public override returns (bool) {\r\n\t\t//unit tx_balances[msg.sender]\r\n\t\t//TODO: verificar no se pueda cobrar rewards de mas\r\n\r\n\t\tif(!excludedAcc[msg.sender] || !excludedAcc[recipient]){\r\n\t\t\tuint txFee = SafeMath.div(SafeMath.mul(amount, _liqFee), 100);\r\n\t\t\t_burn(msg.sender, txFee);\r\n\t\t\tamount-= txFee; //no se debia hacer burn, sino quitar el dinero al monto transferido\r\n\t\t\t_txFeeStacking += txFee/2;\r\n\t\t\t\t\r\n\t\t}\r\n\t\t\r\n\t\t//Se transfiere para que baje el balance antes de hacer los calculos correspondientes\r\n\t\t//Se calcula el reward en base al nuevo balance\r\n\t\t//Se agrega en el mapping la reward reclamada\r\n\t\t//Se queman los tokens equivalentes al reward del contrato\r\n\t\t//Y se crean nuevos tokens equivalentes en la cuenta de quien recive el reward\r\n\t\tsuper._transfer(_msgSender(), recipient, amount*capToken);\r\n\t\tuint txRewards = (balanceOf(msg.sender) * _txFeeStacking) / _precision;\r\n\t\tclaimedTokensFromPool[msg.sender] += txRewards;\r\n\t\t\r\n\t\t//_burn(address(this), txRewards);\r\n\t\t_mint(msg.sender, txRewards);\r\n\r\n        return true;\r\n    }\r\n\tfunction _beforeTokenTransfer(address from, address to, uint256 amount) internal override (ERC20Capped) {\r\n\t\tsuper._beforeTokenTransfer(from, to, amount);\t\r\n    }\r\n\r\n\t// function _txBurn(address account, uint256 amount) internal virtual {\r\n    //     require(account != address(0), \"ERC20: burn from the zero address\");\r\n    //     _balances[account] = _balances[account].sub(amount, \"ERC20: burn amount exceeds balance\");\r\n    //     _totalSupply = _totalSupply.sub(amount);\r\n    // }\r\n\r\n\tfunction _setSwapExclude(address swapPair) public onlyOwner(){\r\n\t\texcludedAcc[swapPair] = true;\r\n\t}\r\n\r\n\tfunction capTokenSupply(uint decimals) public onlyOwner(){\r\n\t\t//solo puede ser 1, 10, 100, 1000, ...\r\n\t\t//_totalSupply /= decimals;\r\n\t\t//_txFeeStacking /= decimals;\r\n\t\tcapToken = decimals;\r\n\t}\r\n\r\n\tfunction setKriptyGovToken(address kriptyAddress) public onlyOwner(){\r\n\t\tkriptyGovToken = kriptyAddress;\r\n\t}\r\n\r\n\tfunction increaseBalance(uint amount) public{\r\n\t\trequire(msg.sender == kriptyGovToken, \"Only Kripty token can call this function\");\r\n\t\t_txFeeStacking += amount;\r\n\t}\r\n\r\n\t//function claimTokens(uint amount) public onlyOwner() {\r\n\t//\t(bool success, ) = owner.call{vaue: address(this).balance}(\"\");\r\n\t//\trequire(success, \"\");\r\n\t//}\r\n\r\n\tfunction  balanceOf(address account) public view override returns (uint256){\r\n\t\tuint ownerBalance = balanceOf(account);\r\n\t\tuint txRewards = (ownerBalance * _txFeeStacking) / _precision;//aun no esta bien, problema en presition si se hace cap\r\n\t\tif(txRewards/capToken >= 1){\r\n\t\t\treturn (ownerBalance + txRewards)/capToken;\r\n\t\t}else{\r\n\t\t\treturn ownerBalance/capToken;\r\n\t\t}\r\n\t\t\r\n\t}\r\n\t\r\n}\r\n",
  "sourcePath": "I:/Users/Luis/Documents/GitHub/blockchain/krypti/contracts/KriptyCurrency.sol",
  "compiler": {
    "name": "solc",
    "version": "0.7.0+commit.9e61f92b.Emscripten.clang"
  },
  "schemaVersion": "3.3.4",
  "updatedAt": "2021-05-28T06:52:04.705Z",
  "devdoc": {
    "kind": "dev",
    "methods": {
      "allowance(address,address)": {
        "details": "See {IERC20-allowance}."
      },
      "approve(address,uint256)": {
        "details": "See {IERC20-approve}. Requirements: - `spender` cannot be the zero address."
      },
      "balanceOf(address)": {
        "details": "See {IERC20-balanceOf}."
      },
      "cap()": {
        "details": "Returns the cap on the token's total supply."
      },
      "decimals()": {
        "details": "Returns the number of decimals used to get its user representation. For example, if `decimals` equals `2`, a balance of `505` tokens should be displayed to a user as `5,05` (`505 / 10 ** 2`). Tokens usually opt for a value of 18, imitating the relationship between Ether and Wei. This is the value {ERC20} uses, unless {_setupDecimals} is called. NOTE: This information is only used for _display_ purposes: it in no way affects any of the arithmetic of the contract, including {IERC20-balanceOf} and {IERC20-transfer}."
      },
      "decreaseAllowance(address,uint256)": {
        "details": "Atomically decreases the allowance granted to `spender` by the caller. This is an alternative to {approve} that can be used as a mitigation for problems described in {IERC20-approve}. Emits an {Approval} event indicating the updated allowance. Requirements: - `spender` cannot be the zero address. - `spender` must have allowance for the caller of at least `subtractedValue`."
      },
      "increaseAllowance(address,uint256)": {
        "details": "Atomically increases the allowance granted to `spender` by the caller. This is an alternative to {approve} that can be used as a mitigation for problems described in {IERC20-approve}. Emits an {Approval} event indicating the updated allowance. Requirements: - `spender` cannot be the zero address."
      },
      "name()": {
        "details": "Returns the name of the token."
      },
      "owner()": {
        "details": "Returns the address of the current owner."
      },
      "renounceOwnership()": {
        "details": "Leaves the contract without owner. It will not be possible to call `onlyOwner` functions anymore. Can only be called by the current owner. NOTE: Renouncing ownership will leave the contract without an owner, thereby removing any functionality that is only available to the owner."
      },
      "symbol()": {
        "details": "Returns the symbol of the token, usually a shorter version of the name."
      },
      "totalSupply()": {
        "details": "See {IERC20-totalSupply}."
      },
      "transfer(address,uint256)": {
        "details": "See {IERC20-transfer}. Requirements: - `recipient` cannot be the zero address. - the caller must have a balance of at least `amount`."
      },
      "transferFrom(address,address,uint256)": {
        "details": "See {IERC20-transferFrom}. Emits an {Approval} event indicating the updated allowance. This is not required by the EIP. See the note at the beginning of {ERC20}. Requirements: - `sender` and `recipient` cannot be the zero address. - `sender` must have a balance of at least `amount`. - the caller must have allowance for ``sender``'s tokens of at least `amount`."
      },
      "transferOwnership(address)": {
        "details": "Transfers ownership of the contract to a new account (`newOwner`). Can only be called by the current owner."
      }
    },
    "version": 1
  },
  "userdoc": {
    "kind": "user",
    "methods": {},
    "version": 1
  }
}