{
  "contractName": "KriptyFide",
  "abi": [
    {
      "inputs": [
        {
          "internalType": "address",
          "name": "Krypti_",
          "type": "address"
        }
      ],
      "stateMutability": "nonpayable",
      "type": "constructor"
    },
    {
      "inputs": [],
      "name": "Krypti",
      "outputs": [
        {
          "internalType": "contract KriptyInterfaceFide",
          "name": "",
          "type": "address"
        }
      ],
      "stateMutability": "view",
      "type": "function"
    }
  ],
  "bytecode": "0x608060405234801561001057600080fd5b506040516101693803806101698339818101604052602081101561003357600080fd5b8101908080519060200190929190505050806000806101000a81548173ffffffffffffffffffffffffffffffffffffffff021916908373ffffffffffffffffffffffffffffffffffffffff1602179055505060d6806100936000396000f3fe6080604052348015600f57600080fd5b50600436106045576000357c010000000000000000000000000000000000000000000000000000000090048063d33e1e2014604a575b600080fd5b6050607c565b604051808273ffffffffffffffffffffffffffffffffffffffff16815260200191505060405180910390f35b60008054906101000a900473ffffffffffffffffffffffffffffffffffffffff168156fea264697066735822122027ab9e43eb08990d7837c68c7f85a5750ff330cc19f8faf64a6aea8c69d9c8b364736f6c63430007000033",
  "immutableReferences": {},
  "source": "pragma solidity ^0.7.0;\r\n\r\ncontract KriptyFide {\r\n    \r\n    KriptyInterfaceFide public Krypti;\r\n    mapping (address => uint256) private claimedTokens;\r\n\r\n    constructor(address Krypti_) public {\r\n        Krypti = KriptyInterfaceFide(Krypti_);\r\n    }\r\n\r\n    function claimTokens(address to, uint256 amount) internal {\r\n        uint256 claimedTokensfrom  = claimedTokens[to];\r\n        Krypti.transfer(to, (amount - claimedTokensfrom));\r\n        claimedTokens[to] = claimedTokensfrom + amount;\r\n    }\r\n\r\n}\r\n\r\ninterface KriptyInterfaceFide {\r\n    function transfer(address recipient, uint amount) external;\r\n}",
  "sourcePath": "I:/Users/Luis/Documents/GitHub/blockchain/krypti/contracts/KryptiFide.sol",
  "compiler": {
    "name": "solc",
    "version": "0.7.0+commit.9e61f92b.Emscripten.clang"
  },
  "schemaVersion": "3.3.4",
  "updatedAt": "2021-04-09T02:56:01.828Z",
  "devdoc": {
    "kind": "dev",
    "methods": {},
    "version": 1
  },
  "userdoc": {
    "kind": "user",
    "methods": {},
    "version": 1
  }
}