{
  "contractName": "KriptyGob",
  "abi": [
    {
      "inputs": [
        {
          "internalType": "address",
          "name": "kripty_",
          "type": "address"
        }
      ],
      "stateMutability": "nonpayable",
      "type": "constructor"
    },
    {
      "anonymous": false,
      "inputs": [
        {
          "indexed": true,
          "internalType": "address",
          "name": "previousOwner",
          "type": "address"
        },
        {
          "indexed": true,
          "internalType": "address",
          "name": "newOwner",
          "type": "address"
        }
      ],
      "name": "OwnershipTransferred",
      "type": "event"
    },
    {
      "anonymous": false,
      "inputs": [
        {
          "indexed": false,
          "internalType": "uint256",
          "name": "id",
          "type": "uint256"
        }
      ],
      "name": "ProposalCanceled",
      "type": "event"
    },
    {
      "anonymous": false,
      "inputs": [
        {
          "indexed": false,
          "internalType": "uint256",
          "name": "id",
          "type": "uint256"
        },
        {
          "indexed": false,
          "internalType": "address",
          "name": "proposer",
          "type": "address"
        },
        {
          "indexed": false,
          "internalType": "uint256",
          "name": "startBlock",
          "type": "uint256"
        },
        {
          "indexed": false,
          "internalType": "uint256",
          "name": "endBlock",
          "type": "uint256"
        },
        {
          "indexed": false,
          "internalType": "string",
          "name": "description",
          "type": "string"
        }
      ],
      "name": "ProposalCreated",
      "type": "event"
    },
    {
      "anonymous": false,
      "inputs": [
        {
          "indexed": false,
          "internalType": "uint256",
          "name": "id",
          "type": "uint256"
        }
      ],
      "name": "ProposalExecuted",
      "type": "event"
    },
    {
      "anonymous": false,
      "inputs": [
        {
          "indexed": false,
          "internalType": "address",
          "name": "voter",
          "type": "address"
        },
        {
          "indexed": false,
          "internalType": "uint256",
          "name": "proposalId",
          "type": "uint256"
        },
        {
          "indexed": false,
          "internalType": "bool",
          "name": "proVote",
          "type": "bool"
        },
        {
          "indexed": false,
          "internalType": "uint256",
          "name": "votes",
          "type": "uint256"
        }
      ],
      "name": "Vote",
      "type": "event"
    },
    {
      "inputs": [],
      "name": "Kripty",
      "outputs": [
        {
          "internalType": "contract KriptyInterface",
          "name": "",
          "type": "address"
        }
      ],
      "stateMutability": "view",
      "type": "function"
    },
    {
      "inputs": [
        {
          "internalType": "address",
          "name": "",
          "type": "address"
        }
      ],
      "name": "lastestProposalIds",
      "outputs": [
        {
          "internalType": "uint256",
          "name": "",
          "type": "uint256"
        }
      ],
      "stateMutability": "view",
      "type": "function"
    },
    {
      "inputs": [],
      "name": "name",
      "outputs": [
        {
          "internalType": "string",
          "name": "",
          "type": "string"
        }
      ],
      "stateMutability": "view",
      "type": "function"
    },
    {
      "inputs": [],
      "name": "owner",
      "outputs": [
        {
          "internalType": "address",
          "name": "",
          "type": "address"
        }
      ],
      "stateMutability": "view",
      "type": "function"
    },
    {
      "inputs": [],
      "name": "proposalCount",
      "outputs": [
        {
          "internalType": "uint256",
          "name": "",
          "type": "uint256"
        }
      ],
      "stateMutability": "view",
      "type": "function"
    },
    {
      "inputs": [
        {
          "internalType": "uint256",
          "name": "",
          "type": "uint256"
        }
      ],
      "name": "proposals",
      "outputs": [
        {
          "internalType": "uint256",
          "name": "id",
          "type": "uint256"
        },
        {
          "internalType": "address",
          "name": "proposer",
          "type": "address"
        },
        {
          "internalType": "uint256",
          "name": "startBlock",
          "type": "uint256"
        },
        {
          "internalType": "uint256",
          "name": "endBlock",
          "type": "uint256"
        },
        {
          "internalType": "uint256",
          "name": "proVotes",
          "type": "uint256"
        },
        {
          "internalType": "uint256",
          "name": "againsVotes",
          "type": "uint256"
        },
        {
          "internalType": "bool",
          "name": "canceled",
          "type": "bool"
        },
        {
          "internalType": "bool",
          "name": "executed",
          "type": "bool"
        },
        {
          "internalType": "string",
          "name": "description",
          "type": "string"
        }
      ],
      "stateMutability": "view",
      "type": "function"
    },
    {
      "inputs": [],
      "name": "renounceOwnership",
      "outputs": [],
      "stateMutability": "nonpayable",
      "type": "function"
    },
    {
      "inputs": [
        {
          "internalType": "address",
          "name": "newOwner",
          "type": "address"
        }
      ],
      "name": "transferOwnership",
      "outputs": [],
      "stateMutability": "nonpayable",
      "type": "function"
    },
    {
      "inputs": [],
      "name": "supportShortVotes",
      "outputs": [
        {
          "internalType": "uint256",
          "name": "",
          "type": "uint256"
        }
      ],
      "stateMutability": "pure",
      "type": "function"
    },
    {
      "inputs": [],
      "name": "proposalShortThreshold",
      "outputs": [
        {
          "internalType": "uint256",
          "name": "",
          "type": "uint256"
        }
      ],
      "stateMutability": "pure",
      "type": "function"
    },
    {
      "inputs": [],
      "name": "votingDelay",
      "outputs": [
        {
          "internalType": "uint256",
          "name": "",
          "type": "uint256"
        }
      ],
      "stateMutability": "pure",
      "type": "function"
    },
    {
      "inputs": [],
      "name": "votingPeriod",
      "outputs": [
        {
          "internalType": "uint256",
          "name": "",
          "type": "uint256"
        }
      ],
      "stateMutability": "pure",
      "type": "function"
    },
    {
      "inputs": [
        {
          "internalType": "string",
          "name": "description_",
          "type": "string"
        }
      ],
      "name": "propose",
      "outputs": [
        {
          "internalType": "uint256",
          "name": "",
          "type": "uint256"
        }
      ],
      "stateMutability": "nonpayable",
      "type": "function"
    },
    {
      "inputs": [
        {
          "internalType": "uint256",
          "name": "proposalId",
          "type": "uint256"
        }
      ],
      "name": "execute",
      "outputs": [],
      "stateMutability": "payable",
      "type": "function"
    },
    {
      "inputs": [
        {
          "internalType": "uint256",
          "name": "proposalId",
          "type": "uint256"
        }
      ],
      "name": "cancel",
      "outputs": [],
      "stateMutability": "nonpayable",
      "type": "function"
    },
    {
      "inputs": [
        {
          "internalType": "address",
          "name": "voter",
          "type": "address"
        },
        {
          "internalType": "uint256",
          "name": "proposalId",
          "type": "uint256"
        },
        {
          "internalType": "bool",
          "name": "support",
          "type": "bool"
        }
      ],
      "name": "vote",
      "outputs": [],
      "stateMutability": "nonpayable",
      "type": "function"
    }
  ],
  "bytecode": "0x608060405234801561001057600080fd5b5060405161212d38038061212d8339818101604052602081101561003357600080fd5b8101908080519060200190929190505050600061005d610142640100000000026401000000009004565b9050806000806101000a81548173ffffffffffffffffffffffffffffffffffffffff021916908373ffffffffffffffffffffffffffffffffffffffff1602179055508073ffffffffffffffffffffffffffffffffffffffff16600073ffffffffffffffffffffffffffffffffffffffff167f8be0079c531659141344cd1fd0a4f28419497f9722a3daafe3b4186f6b6457e060405160405180910390a35080600160006101000a81548173ffffffffffffffffffffffffffffffffffffffff021916908373ffffffffffffffffffffffffffffffffffffffff1602179055505061014a565b600033905090565b611fd4806101596000396000f3fe608060405260043610610110576000357c0100000000000000000000000000000000000000000000000000000000900480637615ce2c116100a7578063da35c66411610076578063da35c6641461056c578063e1a0257714610597578063f2fde38b146105fe578063fe0d94c11461064f57610110565b80637615ce2c146103a95780638da5cb5b1461040e578063a18385c31461044f578063aa98df391461049057610110565b80633932abb1116100e35780633932abb11461030157806340e58ee51461032c57806353f3abd114610367578063715018a61461039257610110565b8063013cf08b1461011557806302a251a31461021b57806306fdde031461024657806310228399146102d6575b600080fd5b34801561012157600080fd5b5061014e6004803603602081101561013857600080fd5b810190808035906020019092919050505061067d565b604051808a81526020018973ffffffffffffffffffffffffffffffffffffffff1681526020018881526020018781526020018681526020018581526020018415158152602001831515815260200180602001828103825283818151815260200191508051906020019080838360005b838110156101d85780820151818401526020810190506101bd565b50505050905090810190601f1680156102055780820380516001836020036101000a031916815260200191505b509a505050505050505050505060405180910390f35b34801561022757600080fd5b5061023061079d565b6040518082815260200191505060405180910390f35b34801561025257600080fd5b5061025b6107a8565b6040518080602001828103825283818151815260200191508051906020019080838360005b8381101561029b578082015181840152602081019050610280565b50505050905090810190601f1680156102c85780820380516001836020036101000a031916815260200191505b509250505060405180910390f35b3480156102e257600080fd5b506102eb6107e1565b6040518082815260200191505060405180910390f35b34801561030d57600080fd5b506103166107ee565b6040518082815260200191505060405180910390f35b34801561033857600080fd5b506103656004803603602081101561034f57600080fd5b81019080803590602001909291905050506107f7565b005b34801561037357600080fd5b5061037c610ad9565b6040518082815260200191505060405180910390f35b34801561039e57600080fd5b506103a7610ae7565b005b3480156103b557600080fd5b506103f8600480360360208110156103cc57600080fd5b81019080803573ffffffffffffffffffffffffffffffffffffffff169060200190929190505050610c54565b6040518082815260200191505060405180910390f35b34801561041a57600080fd5b50610423610c6c565b604051808273ffffffffffffffffffffffffffffffffffffffff16815260200191505060405180910390f35b34801561045b57600080fd5b50610464610c95565b604051808273ffffffffffffffffffffffffffffffffffffffff16815260200191505060405180910390f35b34801561049c57600080fd5b50610556600480360360208110156104b357600080fd5b81019080803590602001906401000000008111156104d057600080fd5b8201836020820111156104e257600080fd5b8035906020019184600183028401116401000000008311171561050457600080fd5b91908080601f016020809104026020016040519081016040528093929190818152602001838380828437600081840152601f19601f820116905080830192505050505050509192919290505050610cbb565b6040518082815260200191505060405180910390f35b34801561057857600080fd5b5061058161134b565b6040518082815260200191505060405180910390f35b3480156105a357600080fd5b506105fc600480360360608110156105ba57600080fd5b81019080803573ffffffffffffffffffffffffffffffffffffffff16906020019092919080359060200190929190803515159060200190929190505050611351565b005b34801561060a57600080fd5b5061064d6004803603602081101561062157600080fd5b81019080803573ffffffffffffffffffffffffffffffffffffffff1690602001909291905050506117e9565b005b61067b6004803603602081101561066557600080fd5b81019080803590602001909291905050506119db565b005b60036020528060005260406000206000915090508060000154908060010160009054906101000a900473ffffffffffffffffffffffffffffffffffffffff16908060020154908060030154908060040154908060050154908060060160009054906101000a900460ff16908060060160019054906101000a900460ff1690806007018054600181600116156101000203166002900480601f0160208091040260200160405190810160405280929190818152602001828054600181600116156101000203166002900480156107935780601f1061076857610100808354040283529160200191610793565b820191906000526020600020905b81548152906001019060200180831161077657829003601f168201915b5050505050905089565b60006202bf20905090565b6040518060400160405280601a81526020017f4b726970747920476f7665726e616e636520636f6e747261637400000000000081525081565b600064746a528800905090565b60006001905090565b6107ff611cbe565b73ffffffffffffffffffffffffffffffffffffffff1661081d610c6c565b73ffffffffffffffffffffffffffffffffffffffff16146108a6576040517f08c379a00000000000000000000000000000000000000000000000000000000081526004018080602001828103825260208152602001807f4f776e61626c653a2063616c6c6572206973206e6f7420746865206f776e657281525060200191505060405180910390fd5b6006808111156108b257fe5b6108bb82611cc6565b60068111156108c657fe5b1415806108f25750600460068111156108db57fe5b6108e482611cc6565b60068111156108ef57fe5b14155b610947576040517f08c379a0000000000000000000000000000000000000000000000000000000008152600401808060200182810382526037815260200180611f106037913960400191505060405180910390fd5b600060036000838152602001908152602001600020905060018160060160006101000a81548160ff02191690831515021790555060005b8160090180549050811015610a9d57600160009054906101000a900473ffffffffffffffffffffffffffffffffffffffff1673ffffffffffffffffffffffffffffffffffffffff1663e724529c8360090183815481106109da57fe5b9060005260206000200160009054906101000a900473ffffffffffffffffffffffffffffffffffffffff1660006040518363ffffffff167c0100000000000000000000000000000000000000000000000000000000028152600401808373ffffffffffffffffffffffffffffffffffffffff168152602001821515815260200192505050600060405180830381600087803b158015610a7857600080fd5b505af1158015610a8c573d6000803e3d6000fd5b50505050808060010191505061097e565b507f789cf55be980739dad1d0699b93b58e806b51c9d96619bfa8fe0a28abaa7b30c826040518082815260200191505060405180910390a15050565b60006509184e72a000905090565b610aef611cbe565b73ffffffffffffffffffffffffffffffffffffffff16610b0d610c6c565b73ffffffffffffffffffffffffffffffffffffffff1614610b96576040517f08c379a00000000000000000000000000000000000000000000000000000000081526004018080602001828103825260208152602001807f4f776e61626c653a2063616c6c6572206973206e6f7420746865206f776e657281525060200191505060405180910390fd5b600073ffffffffffffffffffffffffffffffffffffffff1660008054906101000a900473ffffffffffffffffffffffffffffffffffffffff1673ffffffffffffffffffffffffffffffffffffffff167f8be0079c531659141344cd1fd0a4f28419497f9722a3daafe3b4186f6b6457e060405160405180910390a360008060006101000a81548173ffffffffffffffffffffffffffffffffffffffff021916908373ffffffffffffffffffffffffffffffffffffffff160217905550565b60046020528060005260406000206000915090505481565b60008060009054906101000a900473ffffffffffffffffffffffffffffffffffffffff16905090565b600160009054906101000a900473ffffffffffffffffffffffffffffffffffffffff1681565b6000610cc56107e1565b600160009054906101000a900473ffffffffffffffffffffffffffffffffffffffff1673ffffffffffffffffffffffffffffffffffffffff166370a08231336040518263ffffffff167c0100000000000000000000000000000000000000000000000000000000028152600401808273ffffffffffffffffffffffffffffffffffffffff16815260200191505060206040518083038186803b158015610d6a57600080fd5b505afa158015610d7e573d6000803e3d6000fd5b505050506040513d6020811015610d9457600080fd5b81019080805190602001909291905050501015610dfc576040517f08c379a0000000000000000000000000000000000000000000000000000000008152600401808060200182810382526027815260200180611f476027913960400191505060405180910390fd5b6000600460003373ffffffffffffffffffffffffffffffffffffffff1673ffffffffffffffffffffffffffffffffffffffff16815260200190815260200160002054905060008114610f37576000610e5382611cc6565b905060016006811115610e6257fe5b816006811115610e6e57fe5b1415610ec5576040517f08c379a0000000000000000000000000000000000000000000000000000000008152600401808060200182810382526021815260200180611ea86021913960400191505060405180910390fd5b60006006811115610ed257fe5b816006811115610ede57fe5b1415610f35576040517f08c379a0000000000000000000000000000000000000000000000000000000008152600401808060200182810382526021815260200180611eef6021913960400191505060405180910390fd5b505b6000610f416107ee565b430190506000610f4f61079d565b82019050600260008154809291906001019190505550600254600360006002548152602001908152602001600020600001819055503360036000600254815260200190815260200160002060010160006101000a81548173ffffffffffffffffffffffffffffffffffffffff021916908373ffffffffffffffffffffffffffffffffffffffff16021790555081600360006002548152602001908152602001600020600201819055508060036000600254815260200190815260200160002060030181905550600060036000600254815260200190815260200160002060040181905550600060036000600254815260200190815260200160002060050181905550600060036000600254815260200190815260200160002060060160006101000a81548160ff021916908315150217905550600060036000600254815260200190815260200160002060060160016101000a81548160ff0219169083151502179055508460036000600254815260200190815260200160002060070190805190602001906110df929190611e0a565b50600360006002548152602001908152602001600020600001546004600060036000600254815260200190815260200160002060010160009054906101000a900473ffffffffffffffffffffffffffffffffffffffff1673ffffffffffffffffffffffffffffffffffffffff1673ffffffffffffffffffffffffffffffffffffffff16815260200190815260200160002081905550600160009054906101000a900473ffffffffffffffffffffffffffffffffffffffff1673ffffffffffffffffffffffffffffffffffffffff1663e724529c3360016040518363ffffffff167c0100000000000000000000000000000000000000000000000000000000028152600401808373ffffffffffffffffffffffffffffffffffffffff168152602001821515815260200192505050600060405180830381600087803b15801561122657600080fd5b505af115801561123a573d6000803e3d6000fd5b505050507fa00fcf4f5e03cc2f4818b8f380a8f2a06479e49bf0765e5fec09aebdaf922bbc6003600060025481526020019081526020016000206000015433848489604051808681526020018573ffffffffffffffffffffffffffffffffffffffff16815260200184815260200183815260200180602001828103825283818151815260200191508051906020019080838360005b838110156112ea5780820151818401526020810190506112cf565b50505050905090810190601f1680156113175780820380516001836020036101000a031916815260200191505b50965050505050505060405180910390a1600360006002548152602001908152602001600020600001549350505050919050565b60025481565b6001600681111561135e57fe5b61136783611cc6565b600681111561137257fe5b148061139c57506000600681111561138657fe5b61138f83611cc6565b600681111561139a57fe5b145b61140e576040517f08c379a00000000000000000000000000000000000000000000000000000000081526004018080602001828103825260108152602001807f566f74696e6720697320636c6f7365640000000000000000000000000000000081525060200191505060405180910390fd5b600060036000848152602001908152602001600020905060008160080160008673ffffffffffffffffffffffffffffffffffffffff1673ffffffffffffffffffffffffffffffffffffffff1681526020019081526020016000209050600015158160000160009054906101000a900460ff161515146114f5576040517f08c379a00000000000000000000000000000000000000000000000000000000081526004018080602001828103825260138152602001807f766f74657220616c726561647920766f7465640000000000000000000000000081525060200191505060405180910390fd5b6000600160009054906101000a900473ffffffffffffffffffffffffffffffffffffffff1673ffffffffffffffffffffffffffffffffffffffff166370a08231876040518263ffffffff167c0100000000000000000000000000000000000000000000000000000000028152600401808273ffffffffffffffffffffffffffffffffffffffff16815260200191505060206040518083038186803b15801561159c57600080fd5b505afa1580156115b0573d6000803e3d6000fd5b505050506040513d60208110156115c657600080fd5b8101908080519060200190929190505050905083156115f657808360040160008282540192505081905550611609565b8083600501600082825401925050819055505b82600901869080600181540180825580915050600190039060005260206000200160009091909190916101000a81548173ffffffffffffffffffffffffffffffffffffffff021916908373ffffffffffffffffffffffffffffffffffffffff16021790555060018260000160006101000a81548160ff021916908315150217905550838260000160016101000a81548160ff021916908315150217905550808260010181905550600160009054906101000a900473ffffffffffffffffffffffffffffffffffffffff1673ffffffffffffffffffffffffffffffffffffffff1663e724529c8760016040518363ffffffff167c0100000000000000000000000000000000000000000000000000000000028152600401808373ffffffffffffffffffffffffffffffffffffffff168152602001821515815260200192505050600060405180830381600087803b15801561176257600080fd5b505af1158015611776573d6000803e3d6000fd5b505050507f65f8c50a40ae46ed6b244ba59b93d321216c9638f156760e7f851c2536a3add286868684604051808573ffffffffffffffffffffffffffffffffffffffff168152602001848152602001831515815260200182815260200194505050505060405180910390a1505050505050565b6117f1611cbe565b73ffffffffffffffffffffffffffffffffffffffff1661180f610c6c565b73ffffffffffffffffffffffffffffffffffffffff1614611898576040517f08c379a00000000000000000000000000000000000000000000000000000000081526004018080602001828103825260208152602001807f4f776e61626c653a2063616c6c6572206973206e6f7420746865206f776e657281525060200191505060405180910390fd5b600073ffffffffffffffffffffffffffffffffffffffff168173ffffffffffffffffffffffffffffffffffffffff16141561191e576040517f08c379a0000000000000000000000000000000000000000000000000000000008152600401808060200182810382526026815260200180611ec96026913960400191505060405180910390fd5b8073ffffffffffffffffffffffffffffffffffffffff1660008054906101000a900473ffffffffffffffffffffffffffffffffffffffff1673ffffffffffffffffffffffffffffffffffffffff167f8be0079c531659141344cd1fd0a4f28419497f9722a3daafe3b4186f6b6457e060405160405180910390a3806000806101000a81548173ffffffffffffffffffffffffffffffffffffffff021916908373ffffffffffffffffffffffffffffffffffffffff16021790555050565b6119e3611cbe565b73ffffffffffffffffffffffffffffffffffffffff16611a01610c6c565b73ffffffffffffffffffffffffffffffffffffffff1614611a8a576040517f08c379a00000000000000000000000000000000000000000000000000000000081526004018080602001828103825260208152602001807f4f776e61626c653a2063616c6c6572206973206e6f7420746865206f776e657281525060200191505060405180910390fd5b60036006811115611a9757fe5b611aa082611cc6565b6006811115611aab57fe5b141580611ad7575060026006811115611ac057fe5b611ac982611cc6565b6006811115611ad457fe5b14155b611b2c576040517f08c379a0000000000000000000000000000000000000000000000000000000008152600401808060200182810382526031815260200180611f6e6031913960400191505060405180910390fd5b600060036000838152602001908152602001600020905060018160060160016101000a81548160ff02191690831515021790555060005b8160090180549050811015611c8257600160009054906101000a900473ffffffffffffffffffffffffffffffffffffffff1673ffffffffffffffffffffffffffffffffffffffff1663e724529c836009018381548110611bbf57fe5b9060005260206000200160009054906101000a900473ffffffffffffffffffffffffffffffffffffffff1660006040518363ffffffff167c0100000000000000000000000000000000000000000000000000000000028152600401808373ffffffffffffffffffffffffffffffffffffffff168152602001821515815260200192505050600060405180830381600087803b158015611c5d57600080fd5b505af1158015611c71573d6000803e3d6000fd5b505050508080600101915050611b63565b507f712ae1383f79ac853f8d882153778e0260ef8f03b504e2866e0593e04d2b291f826040518082815260200191505060405180910390a15050565b600033905090565b60008160025410158015611cda5750600082115b611d4c576040517f08c379a00000000000000000000000000000000000000000000000000000000081526004018080602001828103825260138152602001807f696e76616c69642070726f706f73616c2069640000000000000000000000000081525060200191505060405180910390fd5b60006003600084815260200190815260200160002090508060060160009054906101000a900460ff1615611d84576002915050611e05565b80600201544311611d99576000915050611e05565b80600301544311611dae576001915050611e05565b80600501548160040154111580611dcf5750611dc8610ad9565b8160040154105b15611dde576003915050611e05565b8060060160019054906101000a900460ff1615611dff576006915050611e05565b60049150505b919050565b828054600181600116156101000203166002900490600052602060002090601f016020900481019282601f10611e4b57805160ff1916838001178555611e79565b82800160010185558215611e79579182015b82811115611e78578251825591602001919060010190611e5d565b5b509050611e869190611e8a565b5090565b5b80821115611ea3576000816000905550600101611e8b565b509056fe466f756e6420616e206163746976652070726f706f73616c2066726f6d20796f754f776e61626c653a206e6577206f776e657220697320746865207a65726f2061646472657373466f756e6420612070656e64696e672070726f706f73616c2066726f6d20796f754e6f2073652070756564652063616e63656c617220756e612070726f707565737461207175652079612066756520656a6563757461646150726f706f73657220766f7465732062656c6f772070726f706f73616c207468726573686f6c64566f746f73206e6f20737566696369656e746573207061726120656a65637574617220657374612070726f707565737461a26469706673582212202305267a23ce3b0830f4ede1e53373318d87d2b1aaaa09a9e7df7ab6dc14c92664736f6c63430007000033",
  "immutableReferences": {},
  "source": "pragma solidity ^0.7.0;\r\nimport \"@openzeppelin/contracts/access/Ownable.sol\";\r\n\r\ncontract KriptyGob is Ownable {\r\n\r\n    string public constant name = \"Kripty Governance contract\";\r\n\r\n    function supportShortVotes() public pure returns (uint) { return 10000000000000; }\r\n\r\n    function proposalShortThreshold() public pure returns (uint) { return 500000000000; }\r\n    \r\n    function votingDelay() public pure returns (uint) { return 1; } // 1 block\r\n\r\n    function votingPeriod() public pure returns (uint) { return 180000; } //3 days in blocks\r\n\r\n    KriptyInterface public Kripty;\r\n\r\n    uint public proposalCount;\r\n\r\n    struct Proposal {\r\n        uint id;\r\n        address proposer;\r\n        uint startBlock;\r\n        uint endBlock;\r\n        uint proVotes;\r\n        uint againsVotes;\r\n        bool canceled;\r\n        bool executed;\r\n        string description;\r\n        mapping (address => Receipt) receipts;\r\n        address[] keys;\r\n    }\r\n\r\n    struct Receipt {\r\n        bool hasVoted;\r\n        bool proVote;\r\n        uint votes;\r\n    }\r\n\r\n    enum ProposalState {\r\n        Pending,\r\n        Active,\r\n        Canceled,\r\n        Defeated,\r\n        Succeeded,\r\n        Expired,\r\n        Executed\r\n    }\r\n\r\n    mapping (uint => Proposal) public proposals;\r\n    mapping (address => uint) public lastestProposalIds;\r\n\r\n    event ProposalCreated(uint id, address proposer, uint startBlock, uint endBlock, string description);\r\n    event Vote(address voter, uint proposalId, bool proVote, uint votes);\r\n    event ProposalCanceled(uint id);\r\n    event ProposalExecuted(uint id);\r\n\r\n    constructor(address kripty_) public {\r\n        Kripty = KriptyInterface(kripty_);\r\n    }\r\n\r\n    function propose(string memory description_) public returns (uint) {\r\n        require(Kripty.balanceOf(msg.sender) >= proposalShortThreshold(), \"Proposer votes below proposal threshold\");\r\n\r\n        uint lastestProposalId = lastestProposalIds[msg.sender];\r\n        if (lastestProposalId != 0) {\r\n            ProposalState proposalState = state(lastestProposalId);\r\n            require(proposalState != ProposalState.Active, \"Found an active proposal from you\");\r\n            require(proposalState != ProposalState.Pending, \"Found a pending proposal from you\");\r\n        }\r\n        \r\n        uint startBlock = block.number + votingDelay();\r\n        uint endBlock = startBlock + votingPeriod();\r\n        proposalCount++;\r\n\r\n        proposals[proposalCount].id = proposalCount;\r\n        proposals[proposalCount].proposer = msg.sender;\r\n        proposals[proposalCount].startBlock = startBlock;\r\n        proposals[proposalCount].endBlock = endBlock;\r\n        proposals[proposalCount].proVotes = 0;\r\n        proposals[proposalCount].againsVotes = 0;\r\n        proposals[proposalCount].canceled = false;\r\n        proposals[proposalCount].executed = false;\r\n        proposals[proposalCount].description = description_;\r\n\r\n        lastestProposalIds[proposals[proposalCount].proposer] = proposals[proposalCount].id;\r\n        Kripty.freezeAccount(msg.sender, true);\r\n\r\n        emit ProposalCreated(proposals[proposalCount].id, msg.sender, startBlock, endBlock, description_);\r\n        return proposals[proposalCount].id;\r\n    }\r\n\r\n    function execute(uint proposalId) public payable onlyOwner() {\r\n        //TODO: agregar require de estado vs supportShortVotes\r\n        require(state(proposalId) != ProposalState.Defeated || state(proposalId) != ProposalState.Canceled, \"Votos no suficientes para ejecutar esta propuesta\");\r\n        Proposal storage proposal = proposals[proposalId];\r\n\r\n        proposal.executed = true;\r\n\r\n        for(uint i = 0; i < proposal.keys.length ; i++){\r\n            Kripty.freezeAccount(proposal.keys[i] , false);\r\n        }\r\n\r\n        emit ProposalExecuted(proposalId);\r\n    }\r\n\r\n    function cancel(uint proposalId) public onlyOwner() {\r\n        require(state(proposalId) != ProposalState.Executed || state(proposalId) != ProposalState.Succeeded, \"No se puede cancelar una propuesta que ya fue ejecutada\");\r\n\r\n        Proposal storage proposal = proposals[proposalId];\r\n        proposal.canceled = true;\r\n\r\n        for(uint i = 0; i < proposal.keys.length; i++){\r\n            Kripty.freezeAccount(proposal.keys[i] , false);\r\n        }\r\n\r\n        emit ProposalCanceled(proposalId);\r\n    }\r\n\r\n    function state(uint proposalId) private view returns (ProposalState) {\r\n        require(proposalCount >= proposalId && proposalId > 0, \"invalid proposal id\");\r\n        Proposal storage proposal = proposals[proposalId];\r\n        if (proposal.canceled) {\r\n            return ProposalState.Canceled;\r\n        } else if (block.number <= proposal.startBlock) {\r\n            return ProposalState.Pending;\r\n        } else if (block.number <= proposal.endBlock) {\r\n            return ProposalState.Active;\r\n        } else if (proposal.proVotes <= proposal.againsVotes || proposal.proVotes < supportShortVotes()) {\r\n            return ProposalState.Defeated;\r\n        } else if (proposal.executed) {\r\n            return ProposalState.Executed;\r\n        //} else if (block.timestamp >= ) TODO: retornar expired\r\n        } else {\r\n            return ProposalState.Succeeded;\r\n        }\r\n    }\r\n\r\n    function vote(address voter, uint proposalId, bool support) public {\r\n        require(state(proposalId) == ProposalState.Active || state(proposalId) == ProposalState.Pending, \"Voting is closed\");\r\n        Proposal storage proposal = proposals[proposalId];\r\n        Receipt storage receipt = proposal.receipts[voter];\r\n        require(receipt.hasVoted == false , \"voter already voted\");\r\n        \r\n        uint votes = Kripty.balanceOf(voter);\r\n\r\n        if (support) {\r\n            proposal.proVotes += votes;\r\n        } else {\r\n            proposal.againsVotes += votes;\r\n        }\r\n        proposal.keys.push(voter);\r\n\r\n        receipt.hasVoted = true;\r\n        receipt.proVote = support;\r\n        receipt.votes = votes;\r\n\r\n        Kripty.freezeAccount(voter, true);\r\n\r\n        emit Vote(voter, proposalId, support, votes);\r\n\r\n    }\r\n \r\n}\r\n\r\ninterface KriptyInterface {\r\n        function balanceOf(address account) external view returns (uint);\r\n        function freezeAccount(address target, bool freeze) external;\r\n}\r\n",
  "sourcePath": "I:/Users/Luis/Documents/GitHub/blockchain/krypti/contracts/KriptyGob.sol",
  "compiler": {
    "name": "solc",
    "version": "0.7.0+commit.9e61f92b.Emscripten.clang"
  },
  "schemaVersion": "3.3.4",
  "updatedAt": "2021-05-28T06:41:35.786Z",
  "devdoc": {
    "kind": "dev",
    "methods": {
      "owner()": {
        "details": "Returns the address of the current owner."
      },
      "renounceOwnership()": {
        "details": "Leaves the contract without owner. It will not be possible to call `onlyOwner` functions anymore. Can only be called by the current owner. NOTE: Renouncing ownership will leave the contract without an owner, thereby removing any functionality that is only available to the owner."
      },
      "transferOwnership(address)": {
        "details": "Transfers ownership of the contract to a new account (`newOwner`). Can only be called by the current owner."
      }
    },
    "version": 1
  },
  "userdoc": {
    "kind": "user",
    "methods": {},
    "version": 1
  }
}