{
  "contractName": "KriptyCoin",
  "abi": [
    {
      "inputs": [
        {
          "internalType": "address",
          "name": "_burnAddress",
          "type": "address"
        },
        {
          "internalType": "address",
          "name": "_devTeam",
          "type": "address"
        },
        {
          "internalType": "address",
          "name": "_airDrop",
          "type": "address"
        },
        {
          "internalType": "uint256",
          "name": "liqFee",
          "type": "uint256"
        }
      ],
      "stateMutability": "nonpayable",
      "type": "constructor"
    },
    {
      "anonymous": false,
      "inputs": [
        {
          "indexed": true,
          "internalType": "address",
          "name": "owner",
          "type": "address"
        },
        {
          "indexed": true,
          "internalType": "address",
          "name": "spender",
          "type": "address"
        },
        {
          "indexed": false,
          "internalType": "uint256",
          "name": "value",
          "type": "uint256"
        }
      ],
      "name": "Approval",
      "type": "event"
    },
    {
      "anonymous": false,
      "inputs": [
        {
          "indexed": true,
          "internalType": "address",
          "name": "previousOwner",
          "type": "address"
        },
        {
          "indexed": true,
          "internalType": "address",
          "name": "newOwner",
          "type": "address"
        }
      ],
      "name": "OwnershipTransferred",
      "type": "event"
    },
    {
      "anonymous": false,
      "inputs": [
        {
          "indexed": true,
          "internalType": "address",
          "name": "from",
          "type": "address"
        },
        {
          "indexed": true,
          "internalType": "address",
          "name": "to",
          "type": "address"
        },
        {
          "indexed": false,
          "internalType": "uint256",
          "name": "value",
          "type": "uint256"
        }
      ],
      "name": "Transfer",
      "type": "event"
    },
    {
      "inputs": [
        {
          "internalType": "address",
          "name": "owner",
          "type": "address"
        },
        {
          "internalType": "address",
          "name": "spender",
          "type": "address"
        }
      ],
      "name": "allowance",
      "outputs": [
        {
          "internalType": "uint256",
          "name": "",
          "type": "uint256"
        }
      ],
      "stateMutability": "view",
      "type": "function"
    },
    {
      "inputs": [
        {
          "internalType": "address",
          "name": "spender",
          "type": "address"
        },
        {
          "internalType": "uint256",
          "name": "amount",
          "type": "uint256"
        }
      ],
      "name": "approve",
      "outputs": [
        {
          "internalType": "bool",
          "name": "",
          "type": "bool"
        }
      ],
      "stateMutability": "nonpayable",
      "type": "function"
    },
    {
      "inputs": [],
      "name": "cap",
      "outputs": [
        {
          "internalType": "uint256",
          "name": "",
          "type": "uint256"
        }
      ],
      "stateMutability": "view",
      "type": "function"
    },
    {
      "inputs": [
        {
          "internalType": "address",
          "name": "",
          "type": "address"
        }
      ],
      "name": "claimedTokensFromPool",
      "outputs": [
        {
          "internalType": "uint256",
          "name": "",
          "type": "uint256"
        }
      ],
      "stateMutability": "view",
      "type": "function"
    },
    {
      "inputs": [],
      "name": "decimals",
      "outputs": [
        {
          "internalType": "uint8",
          "name": "",
          "type": "uint8"
        }
      ],
      "stateMutability": "view",
      "type": "function"
    },
    {
      "inputs": [
        {
          "internalType": "address",
          "name": "spender",
          "type": "address"
        },
        {
          "internalType": "uint256",
          "name": "subtractedValue",
          "type": "uint256"
        }
      ],
      "name": "decreaseAllowance",
      "outputs": [
        {
          "internalType": "bool",
          "name": "",
          "type": "bool"
        }
      ],
      "stateMutability": "nonpayable",
      "type": "function"
    },
    {
      "inputs": [
        {
          "internalType": "address",
          "name": "",
          "type": "address"
        }
      ],
      "name": "excludedAcc",
      "outputs": [
        {
          "internalType": "bool",
          "name": "",
          "type": "bool"
        }
      ],
      "stateMutability": "view",
      "type": "function"
    },
    {
      "inputs": [
        {
          "internalType": "address",
          "name": "spender",
          "type": "address"
        },
        {
          "internalType": "uint256",
          "name": "addedValue",
          "type": "uint256"
        }
      ],
      "name": "increaseAllowance",
      "outputs": [
        {
          "internalType": "bool",
          "name": "",
          "type": "bool"
        }
      ],
      "stateMutability": "nonpayable",
      "type": "function"
    },
    {
      "inputs": [],
      "name": "name",
      "outputs": [
        {
          "internalType": "string",
          "name": "",
          "type": "string"
        }
      ],
      "stateMutability": "view",
      "type": "function"
    },
    {
      "inputs": [],
      "name": "owner",
      "outputs": [
        {
          "internalType": "address",
          "name": "",
          "type": "address"
        }
      ],
      "stateMutability": "view",
      "type": "function"
    },
    {
      "inputs": [],
      "name": "releaseDate",
      "outputs": [
        {
          "internalType": "uint256",
          "name": "",
          "type": "uint256"
        }
      ],
      "stateMutability": "view",
      "type": "function"
    },
    {
      "inputs": [],
      "name": "renounceOwnership",
      "outputs": [],
      "stateMutability": "nonpayable",
      "type": "function"
    },
    {
      "inputs": [],
      "name": "symbol",
      "outputs": [
        {
          "internalType": "string",
          "name": "",
          "type": "string"
        }
      ],
      "stateMutability": "view",
      "type": "function"
    },
    {
      "inputs": [],
      "name": "totalSupply",
      "outputs": [
        {
          "internalType": "uint256",
          "name": "",
          "type": "uint256"
        }
      ],
      "stateMutability": "view",
      "type": "function"
    },
    {
      "inputs": [
        {
          "internalType": "address",
          "name": "sender",
          "type": "address"
        },
        {
          "internalType": "address",
          "name": "recipient",
          "type": "address"
        },
        {
          "internalType": "uint256",
          "name": "amount",
          "type": "uint256"
        }
      ],
      "name": "transferFrom",
      "outputs": [
        {
          "internalType": "bool",
          "name": "",
          "type": "bool"
        }
      ],
      "stateMutability": "nonpayable",
      "type": "function"
    },
    {
      "inputs": [
        {
          "internalType": "address",
          "name": "newOwner",
          "type": "address"
        }
      ],
      "name": "transferOwnership",
      "outputs": [],
      "stateMutability": "nonpayable",
      "type": "function"
    },
    {
      "inputs": [],
      "name": "stacking",
      "outputs": [
        {
          "internalType": "uint256",
          "name": "",
          "type": "uint256"
        }
      ],
      "stateMutability": "view",
      "type": "function"
    },
    {
      "inputs": [],
      "name": "networkFee",
      "outputs": [
        {
          "internalType": "uint256",
          "name": "",
          "type": "uint256"
        }
      ],
      "stateMutability": "view",
      "type": "function"
    },
    {
      "inputs": [
        {
          "internalType": "address",
          "name": "recipient",
          "type": "address"
        },
        {
          "internalType": "uint256",
          "name": "amount",
          "type": "uint256"
        }
      ],
      "name": "transfer",
      "outputs": [
        {
          "internalType": "bool",
          "name": "",
          "type": "bool"
        }
      ],
      "stateMutability": "nonpayable",
      "type": "function"
    },
    {
      "inputs": [
        {
          "internalType": "address",
          "name": "swapPair",
          "type": "address"
        }
      ],
      "name": "_setSwapExclude",
      "outputs": [],
      "stateMutability": "nonpayable",
      "type": "function"
    },
    {
      "inputs": [
        {
          "internalType": "uint256",
          "name": "decimals",
          "type": "uint256"
        }
      ],
      "name": "capTokenSupply",
      "outputs": [],
      "stateMutability": "nonpayable",
      "type": "function"
    },
    {
      "inputs": [
        {
          "internalType": "address",
          "name": "kriptyAddress",
          "type": "address"
        }
      ],
      "name": "setKriptyGovToken",
      "outputs": [],
      "stateMutability": "nonpayable",
      "type": "function"
    },
    {
      "inputs": [
        {
          "internalType": "uint256",
          "name": "amount",
          "type": "uint256"
        }
      ],
      "name": "increaseBalance",
      "outputs": [],
      "stateMutability": "nonpayable",
      "type": "function"
    },
    {
      "inputs": [
        {
          "internalType": "address",
          "name": "account",
          "type": "address"
        }
      ],
      "name": "balanceOf",
      "outputs": [
        {
          "internalType": "uint256",
          "name": "",
          "type": "uint256"
        }
      ],
      "stateMutability": "view",
      "type": "function"
    }
  ],
  "bytecode": "0x6080604052670de0b6b3a7640000600d556001600e553480156200002257600080fd5b5060405162002c9738038062002c97833981810160405260808110156200004857600080fd5b810190808051906020019092919080519060200190929190805190602001909291908051906020019092919050505066038d7ea4c680006040518060400160405280600a81526020017f4b7269707479436f696e000000000000000000000000000000000000000000008152506040518060400160405280600381526020017f4b544300000000000000000000000000000000000000000000000000000000008152508160039080519060200190620001039291906200073a565b5080600490805190602001906200011c9291906200073a565b506012600560006101000a81548160ff021916908360ff160217905550505060008111620001b2576040517f08c379a00000000000000000000000000000000000000000000000000000000081526004018080602001828103825260158152602001807f45524332304361707065643a206361702069732030000000000000000000000081525060200191505060405180910390fd5b80600681905550506000620001d56200032d640100000000026401000000009004565b905080600760006101000a81548173ffffffffffffffffffffffffffffffffffffffff021916908373ffffffffffffffffffffffffffffffffffffffff1602179055508073ffffffffffffffffffffffffffffffffffffffff16600073ffffffffffffffffffffffffffffffffffffffff167f8be0079c531659141344cd1fd0a4f28419497f9722a3daafe3b4186f6b6457e060405160405180910390a3506200028f600062000335640100000000026401000000009004565b620002b1306601dd7c1681d00062000353640100000000026401000000009004565b620002d38466016bcc41e9000062000353640100000000026401000000009004565b620002f4836516bcc41e900062000353640100000000026401000000009004565b6200031582652d79883d200062000353640100000000026401000000009004565b80600c819055504260088190555050505050620007e0565b600033905090565b80600560006101000a81548160ff021916908360ff16021790555050565b600073ffffffffffffffffffffffffffffffffffffffff168273ffffffffffffffffffffffffffffffffffffffff161415620003f7576040517f08c379a000000000000000000000000000000000000000000000000000000000815260040180806020018281038252601f8152602001807f45524332303a206d696e7420746f20746865207a65726f20616464726573730081525060200191505060405180910390fd5b62000414600083836200054c640100000000026401000000009004565b6200043981600254620005726401000000000262001666179091906401000000009004565b600281905550620004a0816000808573ffffffffffffffffffffffffffffffffffffffff1673ffffffffffffffffffffffffffffffffffffffff16815260200190815260200160002054620005726401000000000262001666179091906401000000009004565b6000808473ffffffffffffffffffffffffffffffffffffffff1673ffffffffffffffffffffffffffffffffffffffff168152602001908152602001600020819055508173ffffffffffffffffffffffffffffffffffffffff16600073ffffffffffffffffffffffffffffffffffffffff167fddf252ad1be2c89b69c2b068fc378daa952ba7f163c4a11628f55a4df523b3ef836040518082815260200191505060405180910390a35050565b6200056d838383620005fb64010000000002620016ee176401000000009004565b505050565b600080828401905083811015620005f1576040517f08c379a000000000000000000000000000000000000000000000000000000000815260040180806020018281038252601b8152602001807f536166654d6174683a206164646974696f6e206f766572666c6f77000000000081525060200191505060405180910390fd5b8091505092915050565b6200061c8383836200072164010000000002620017ca176401000000009004565b600073ffffffffffffffffffffffffffffffffffffffff168373ffffffffffffffffffffffffffffffffffffffff1614156200071c576200066b62000726640100000000026401000000009004565b620006a6826200068962000730640100000000026401000000009004565b620005726401000000000262001666179091906401000000009004565b11156200071b576040517f08c379a00000000000000000000000000000000000000000000000000000000081526004018080602001828103825260198152602001807f45524332304361707065643a206361702065786365656465640000000000000081525060200191505060405180910390fd5b5b505050565b505050565b6000600654905090565b6000600254905090565b828054600181600116156101000203166002900490600052602060002090601f016020900481019282601f106200077d57805160ff1916838001178555620007ae565b82800160010185558215620007ae579182015b82811115620007ad57825182559160200191906001019062000790565b5b509050620007bd9190620007c1565b5090565b5b80821115620007dc576000816000905550600101620007c2565b5090565b6124a780620007f06000396000f3fe608060405234801561001057600080fd5b5060043610610175576000357c0100000000000000000000000000000000000000000000000000000000900480638da5cb5b116100e0578063c62bfd8f11610099578063c62bfd8f1461068d578063d4013aeb146106ab578063dd62ed3e146106ef578063e58b07ba14610767578063f2fde38b14610795578063fddb9895146107d957610175565b80638da5cb5b146104d257806395d89b41146105065780639db9e18b14610589578063a457c2d7146105a7578063a9059cbb1461060b578063b9e3e2db1461066f57610175565b8063355274ea11610132578063355274ea1461037c578063395093511461039a5780633e4ccb40146103fe57806340e52ef41461042c57806370a0823114610470578063715018a6146104c857610175565b806306fdde031461017a578063095ea7b3146101fd5780630edb02bd1461026157806318160ddd146102b957806323b872dd146102d7578063313ce5671461035b575b600080fd5b610182610833565b6040518080602001828103825283818151815260200191508051906020019080838360005b838110156101c25780820151818401526020810190506101a7565b50505050905090810190601f1680156101ef5780820380516001836020036101000a031916815260200191505b509250505060405180910390f35b6102496004803603604081101561021357600080fd5b81019080803573ffffffffffffffffffffffffffffffffffffffff169060200190929190803590602001909291905050506108d5565b60405180821515815260200191505060405180910390f35b6102a36004803603602081101561027757600080fd5b81019080803573ffffffffffffffffffffffffffffffffffffffff1690602001909291905050506108f3565b6040518082815260200191505060405180910390f35b6102c161090b565b6040518082815260200191505060405180910390f35b610343600480360360608110156102ed57600080fd5b81019080803573ffffffffffffffffffffffffffffffffffffffff169060200190929190803573ffffffffffffffffffffffffffffffffffffffff16906020019092919080359060200190929190505050610915565b60405180821515815260200191505060405180910390f35b6103636109ee565b604051808260ff16815260200191505060405180910390f35b610384610a05565b6040518082815260200191505060405180910390f35b6103e6600480360360408110156103b057600080fd5b81019080803573ffffffffffffffffffffffffffffffffffffffff16906020019092919080359060200190929190505050610a0f565b60405180821515815260200191505060405180910390f35b61042a6004803603602081101561041457600080fd5b8101908080359060200190929190505050610ac2565b005b61046e6004803603602081101561044257600080fd5b81019080803573ffffffffffffffffffffffffffffffffffffffff169060200190929190505050610b7b565b005b6104b26004803603602081101561048657600080fd5b81019080803573ffffffffffffffffffffffffffffffffffffffff169060200190929190505050610c6e565b6040518082815260200191505060405180910390f35b6104d0610d1a565b005b6104da610e8a565b604051808273ffffffffffffffffffffffffffffffffffffffff16815260200191505060405180910390f35b61050e610eb4565b6040518080602001828103825283818151815260200191508051906020019080838360005b8381101561054e578082015181840152602081019050610533565b50505050905090810190601f16801561057b5780820380516001836020036101000a031916815260200191505b509250505060405180910390f35b610591610f56565b6040518082815260200191505060405180910390f35b6105f3600480360360408110156105bd57600080fd5b81019080803573ffffffffffffffffffffffffffffffffffffffff16906020019092919080359060200190929190505050610f60565b60405180821515815260200191505060405180910390f35b6106576004803603604081101561062157600080fd5b81019080803573ffffffffffffffffffffffffffffffffffffffff1690602001909291908035906020019092919050505061102d565b60405180821515815260200191505060405180910390f35b6106776111f7565b6040518082815260200191505060405180910390f35b6106956111fd565b6040518082815260200191505060405180910390f35b6106ed600480360360208110156106c157600080fd5b81019080803573ffffffffffffffffffffffffffffffffffffffff169060200190929190505050611207565b005b6107516004803603604081101561070557600080fd5b81019080803573ffffffffffffffffffffffffffffffffffffffff169060200190929190803573ffffffffffffffffffffffffffffffffffffffff169060200190929190505050611311565b6040518082815260200191505060405180910390f35b6107936004803603602081101561077d57600080fd5b8101908080359060200190929190505050611398565b005b6107d7600480360360208110156107ab57600080fd5b81019080803573ffffffffffffffffffffffffffffffffffffffff169060200190929190505050611451565b005b61081b600480360360208110156107ef57600080fd5b81019080803573ffffffffffffffffffffffffffffffffffffffff169060200190929190505050611646565b60405180821515815260200191505060405180910390f35b606060038054600181600116156101000203166002900480601f0160208091040260200160405190810160405280929190818152602001828054600181600116156101000203166002900480156108cb5780601f106108a0576101008083540402835291602001916108cb565b820191906000526020600020905b8154815290600101906020018083116108ae57829003601f168201915b5050505050905090565b60006108e96108e26117cf565b84846117d7565b6001905092915050565b600a6020528060005260406000206000915090505481565b6000600254905090565b60006109228484846119ce565b6109e38461092e6117cf565b6109de856040518060600160405280602881526020016123bb60289139600160008b73ffffffffffffffffffffffffffffffffffffffff1673ffffffffffffffffffffffffffffffffffffffff16815260200190815260200160002060006109946117cf565b73ffffffffffffffffffffffffffffffffffffffff1673ffffffffffffffffffffffffffffffffffffffff16815260200190815260200160002054611c8f9092919063ffffffff16565b6117d7565b600190509392505050565b6000600560009054906101000a900460ff16905090565b6000600654905090565b6000610ab8610a1c6117cf565b84610ab38560016000610a2d6117cf565b73ffffffffffffffffffffffffffffffffffffffff1673ffffffffffffffffffffffffffffffffffffffff16815260200190815260200160002060008973ffffffffffffffffffffffffffffffffffffffff1673ffffffffffffffffffffffffffffffffffffffff1681526020019081526020016000205461166690919063ffffffff16565b6117d7565b6001905092915050565b600f60009054906101000a900473ffffffffffffffffffffffffffffffffffffffff1673ffffffffffffffffffffffffffffffffffffffff163373ffffffffffffffffffffffffffffffffffffffff1614610b68576040517f08c379a00000000000000000000000000000000000000000000000000000000081526004018080602001828103825260288152602001806123726028913960400191505060405180910390fd5b80600b6000828254019250508190555050565b610b836117cf565b73ffffffffffffffffffffffffffffffffffffffff16610ba1610e8a565b73ffffffffffffffffffffffffffffffffffffffff1614610c2a576040517f08c379a00000000000000000000000000000000000000000000000000000000081526004018080602001828103825260208152602001807f4f776e61626c653a2063616c6c6572206973206e6f7420746865206f776e657281525060200191505060405180910390fd5b80600f60006101000a81548173ffffffffffffffffffffffffffffffffffffffff021916908373ffffffffffffffffffffffffffffffffffffffff16021790555050565b600080610c7a83611d49565b90506000600d54600b54830281610c8d57fe5b0490506000600a60008673ffffffffffffffffffffffffffffffffffffffff1673ffffffffffffffffffffffffffffffffffffffff1681526020019081526020016000205490506001600e548381610ce157fe5b0410610d015780600e5483850181610cf557fe5b04039350505050610d15565b80600e548481610d0d57fe5b040393505050505b919050565b610d226117cf565b73ffffffffffffffffffffffffffffffffffffffff16610d40610e8a565b73ffffffffffffffffffffffffffffffffffffffff1614610dc9576040517f08c379a00000000000000000000000000000000000000000000000000000000081526004018080602001828103825260208152602001807f4f776e61626c653a2063616c6c6572206973206e6f7420746865206f776e657281525060200191505060405180910390fd5b600073ffffffffffffffffffffffffffffffffffffffff16600760009054906101000a900473ffffffffffffffffffffffffffffffffffffffff1673ffffffffffffffffffffffffffffffffffffffff167f8be0079c531659141344cd1fd0a4f28419497f9722a3daafe3b4186f6b6457e060405160405180910390a36000600760006101000a81548173ffffffffffffffffffffffffffffffffffffffff021916908373ffffffffffffffffffffffffffffffffffffffff160217905550565b6000600760009054906101000a900473ffffffffffffffffffffffffffffffffffffffff16905090565b606060048054600181600116156101000203166002900480601f016020809104026020016040519081016040528092919081815260200182805460018160011615610100020316600290048015610f4c5780601f10610f2157610100808354040283529160200191610f4c565b820191906000526020600020905b815481529060010190602001808311610f2f57829003601f168201915b5050505050905090565b6000600c54905090565b6000611023610f6d6117cf565b8461101e8560405180606001604052806025815260200161244d6025913960016000610f976117cf565b73ffffffffffffffffffffffffffffffffffffffff1673ffffffffffffffffffffffffffffffffffffffff16815260200190815260200160002060008a73ffffffffffffffffffffffffffffffffffffffff1673ffffffffffffffffffffffffffffffffffffffff16815260200190815260200160002054611c8f9092919063ffffffff16565b6117d7565b6001905092915050565b6000600960003373ffffffffffffffffffffffffffffffffffffffff1673ffffffffffffffffffffffffffffffffffffffff16815260200190815260200160002060009054906101000a900460ff1615806110d25750600960008473ffffffffffffffffffffffffffffffffffffffff1673ffffffffffffffffffffffffffffffffffffffff16815260200190815260200160002060009054906101000a900460ff16155b1561111c5760006110ef6110e884600c54611d91565b6064611e17565b90506110fb3382611ea0565b80830392506002818161110a57fe5b04600b60008282540192505081905550505b6000600a60003373ffffffffffffffffffffffffffffffffffffffff1673ffffffffffffffffffffffffffffffffffffffff16815260200190815260200160002054905061117661116b6117cf565b85600e5486026119ce565b600081600d54600b5461118833610c6e565b028161119057fe5b0403905080600a60003373ffffffffffffffffffffffffffffffffffffffff1673ffffffffffffffffffffffffffffffffffffffff168152602001908152602001600020600082825401925050819055506111eb3382612064565b60019250505092915050565b60085481565b6000600b54905090565b61120f6117cf565b73ffffffffffffffffffffffffffffffffffffffff1661122d610e8a565b73ffffffffffffffffffffffffffffffffffffffff16146112b6576040517f08c379a00000000000000000000000000000000000000000000000000000000081526004018080602001828103825260208152602001807f4f776e61626c653a2063616c6c6572206973206e6f7420746865206f776e657281525060200191505060405180910390fd5b6001600960008373ffffffffffffffffffffffffffffffffffffffff1673ffffffffffffffffffffffffffffffffffffffff16815260200190815260200160002060006101000a81548160ff02191690831515021790555050565b6000600160008473ffffffffffffffffffffffffffffffffffffffff1673ffffffffffffffffffffffffffffffffffffffff16815260200190815260200160002060008373ffffffffffffffffffffffffffffffffffffffff1673ffffffffffffffffffffffffffffffffffffffff16815260200190815260200160002054905092915050565b6113a06117cf565b73ffffffffffffffffffffffffffffffffffffffff166113be610e8a565b73ffffffffffffffffffffffffffffffffffffffff1614611447576040517f08c379a00000000000000000000000000000000000000000000000000000000081526004018080602001828103825260208152602001807f4f776e61626c653a2063616c6c6572206973206e6f7420746865206f776e657281525060200191505060405180910390fd5b80600e8190555050565b6114596117cf565b73ffffffffffffffffffffffffffffffffffffffff16611477610e8a565b73ffffffffffffffffffffffffffffffffffffffff1614611500576040517f08c379a00000000000000000000000000000000000000000000000000000000081526004018080602001828103825260208152602001807f4f776e61626c653a2063616c6c6572206973206e6f7420746865206f776e657281525060200191505060405180910390fd5b600073ffffffffffffffffffffffffffffffffffffffff168173ffffffffffffffffffffffffffffffffffffffff161415611586576040517f08c379a00000000000000000000000000000000000000000000000000000000081526004018080602001828103825260268152602001806123046026913960400191505060405180910390fd5b8073ffffffffffffffffffffffffffffffffffffffff16600760009054906101000a900473ffffffffffffffffffffffffffffffffffffffff1673ffffffffffffffffffffffffffffffffffffffff167f8be0079c531659141344cd1fd0a4f28419497f9722a3daafe3b4186f6b6457e060405160405180910390a380600760006101000a81548173ffffffffffffffffffffffffffffffffffffffff021916908373ffffffffffffffffffffffffffffffffffffffff16021790555050565b60096020528060005260406000206000915054906101000a900460ff1681565b6000808284019050838110156116e4576040517f08c379a000000000000000000000000000000000000000000000000000000000815260040180806020018281038252601b8152602001807f536166654d6174683a206164646974696f6e206f766572666c6f77000000000081525060200191505060405180910390fd5b8091505092915050565b6116f98383836117ca565b600073ffffffffffffffffffffffffffffffffffffffff168373ffffffffffffffffffffffffffffffffffffffff1614156117c557611736610a05565b6117508261174261090b565b61166690919063ffffffff16565b11156117c4576040517f08c379a00000000000000000000000000000000000000000000000000000000081526004018080602001828103825260198152602001807f45524332304361707065643a206361702065786365656465640000000000000081525060200191505060405180910390fd5b5b505050565b505050565b600033905090565b600073ffffffffffffffffffffffffffffffffffffffff168373ffffffffffffffffffffffffffffffffffffffff16141561185d576040517f08c379a00000000000000000000000000000000000000000000000000000000081526004018080602001828103825260248152602001806124296024913960400191505060405180910390fd5b600073ffffffffffffffffffffffffffffffffffffffff168273ffffffffffffffffffffffffffffffffffffffff1614156118e3576040517f08c379a000000000000000000000000000000000000000000000000000000000815260040180806020018281038252602281526020018061232a6022913960400191505060405180910390fd5b80600160008573ffffffffffffffffffffffffffffffffffffffff1673ffffffffffffffffffffffffffffffffffffffff16815260200190815260200160002060008473ffffffffffffffffffffffffffffffffffffffff1673ffffffffffffffffffffffffffffffffffffffff168152602001908152602001600020819055508173ffffffffffffffffffffffffffffffffffffffff168373ffffffffffffffffffffffffffffffffffffffff167f8c5be1e5ebec7d5bd14f71427d1e84f3dd0314c0f7b2291e5b200ac8c7c3b925836040518082815260200191505060405180910390a3505050565b600073ffffffffffffffffffffffffffffffffffffffff168373ffffffffffffffffffffffffffffffffffffffff161415611a54576040517f08c379a00000000000000000000000000000000000000000000000000000000081526004018080602001828103825260258152602001806124046025913960400191505060405180910390fd5b600073ffffffffffffffffffffffffffffffffffffffff168273ffffffffffffffffffffffffffffffffffffffff161415611ada576040517f08c379a00000000000000000000000000000000000000000000000000000000081526004018080602001828103825260238152602001806122bf6023913960400191505060405180910390fd5b611ae583838361222b565b611b508160405180606001604052806026815260200161234c602691396000808773ffffffffffffffffffffffffffffffffffffffff1673ffffffffffffffffffffffffffffffffffffffff16815260200190815260200160002054611c8f9092919063ffffffff16565b6000808573ffffffffffffffffffffffffffffffffffffffff1673ffffffffffffffffffffffffffffffffffffffff16815260200190815260200160002081905550611be3816000808573ffffffffffffffffffffffffffffffffffffffff1673ffffffffffffffffffffffffffffffffffffffff1681526020019081526020016000205461166690919063ffffffff16565b6000808473ffffffffffffffffffffffffffffffffffffffff1673ffffffffffffffffffffffffffffffffffffffff168152602001908152602001600020819055508173ffffffffffffffffffffffffffffffffffffffff168373ffffffffffffffffffffffffffffffffffffffff167fddf252ad1be2c89b69c2b068fc378daa952ba7f163c4a11628f55a4df523b3ef836040518082815260200191505060405180910390a3505050565b6000838311158290611d3c576040517f08c379a00000000000000000000000000000000000000000000000000000000081526004018080602001828103825283818151815260200191508051906020019080838360005b83811015611d01578082015181840152602081019050611ce6565b50505050905090810190601f168015611d2e5780820380516001836020036101000a031916815260200191505b509250505060405180910390fd5b5082840390509392505050565b60008060008373ffffffffffffffffffffffffffffffffffffffff1673ffffffffffffffffffffffffffffffffffffffff168152602001908152602001600020549050919050565b600080831415611da45760009050611e11565b6000828402905082848281611db557fe5b0414611e0c576040517f08c379a000000000000000000000000000000000000000000000000000000000815260040180806020018281038252602181526020018061239a6021913960400191505060405180910390fd5b809150505b92915050565b6000808211611e8e576040517f08c379a000000000000000000000000000000000000000000000000000000000815260040180806020018281038252601a8152602001807f536166654d6174683a206469766973696f6e206279207a65726f00000000000081525060200191505060405180910390fd5b818381611e9757fe5b04905092915050565b600073ffffffffffffffffffffffffffffffffffffffff168273ffffffffffffffffffffffffffffffffffffffff161415611f26576040517f08c379a00000000000000000000000000000000000000000000000000000000081526004018080602001828103825260218152602001806123e36021913960400191505060405180910390fd5b611f328260008361222b565b611f9d816040518060600160405280602281526020016122e2602291396000808673ffffffffffffffffffffffffffffffffffffffff1673ffffffffffffffffffffffffffffffffffffffff16815260200190815260200160002054611c8f9092919063ffffffff16565b6000808473ffffffffffffffffffffffffffffffffffffffff1673ffffffffffffffffffffffffffffffffffffffff16815260200190815260200160002081905550611ff48160025461223b90919063ffffffff16565b600281905550600073ffffffffffffffffffffffffffffffffffffffff168273ffffffffffffffffffffffffffffffffffffffff167fddf252ad1be2c89b69c2b068fc378daa952ba7f163c4a11628f55a4df523b3ef836040518082815260200191505060405180910390a35050565b600073ffffffffffffffffffffffffffffffffffffffff168273ffffffffffffffffffffffffffffffffffffffff161415612107576040517f08c379a000000000000000000000000000000000000000000000000000000000815260040180806020018281038252601f8152602001807f45524332303a206d696e7420746f20746865207a65726f20616464726573730081525060200191505060405180910390fd5b6121136000838361222b565b6121288160025461166690919063ffffffff16565b60028190555061217f816000808573ffffffffffffffffffffffffffffffffffffffff1673ffffffffffffffffffffffffffffffffffffffff1681526020019081526020016000205461166690919063ffffffff16565b6000808473ffffffffffffffffffffffffffffffffffffffff1673ffffffffffffffffffffffffffffffffffffffff168152602001908152602001600020819055508173ffffffffffffffffffffffffffffffffffffffff16600073ffffffffffffffffffffffffffffffffffffffff167fddf252ad1be2c89b69c2b068fc378daa952ba7f163c4a11628f55a4df523b3ef836040518082815260200191505060405180910390a35050565b6122368383836116ee565b505050565b6000828211156122b3576040517f08c379a000000000000000000000000000000000000000000000000000000000815260040180806020018281038252601e8152602001807f536166654d6174683a207375627472616374696f6e206f766572666c6f77000081525060200191505060405180910390fd5b81830390509291505056fe45524332303a207472616e7366657220746f20746865207a65726f206164647265737345524332303a206275726e20616d6f756e7420657863656564732062616c616e63654f776e61626c653a206e6577206f776e657220697320746865207a65726f206164647265737345524332303a20617070726f766520746f20746865207a65726f206164647265737345524332303a207472616e7366657220616d6f756e7420657863656564732062616c616e63654f6e6c79204b726970747920746f6b656e2063616e2063616c6c20746869732066756e6374696f6e536166654d6174683a206d756c7469706c69636174696f6e206f766572666c6f7745524332303a207472616e7366657220616d6f756e74206578636565647320616c6c6f77616e636545524332303a206275726e2066726f6d20746865207a65726f206164647265737345524332303a207472616e736665722066726f6d20746865207a65726f206164647265737345524332303a20617070726f76652066726f6d20746865207a65726f206164647265737345524332303a2064656372656173656420616c6c6f77616e63652062656c6f77207a65726fa26469706673582212200fac595ca3d5d9b672b8c0a23a20ca7073397897cf3dbacf405c8c8b02c7174b64736f6c63430007000033",
  "immutableReferences": {},
  "source": "import \"@openzeppelin/contracts/token/ERC20/ERC20Capped.sol\";\r\nimport \"@openzeppelin/contracts/access/Ownable.sol\";\r\nimport \"@openzeppelin/contracts/math/SafeMath.sol\";\r\n\r\ncontract KriptyCoin is ERC20Capped, Ownable {\r\n\t\r\n\tuint256 public releaseDate;\r\n\tmapping (address => bool) public excludedAcc;\r\n\tmapping (address => uint) public claimedTokensFromPool;\r\n\tuint private _txFeeStacking;\r\n\tuint private _liqFee;\r\n\tuint256 _precision = 1*10**18;\r\n\tuint private capToken = 1;\r\n\taddress kriptyGovToken;\r\n\tfunction stacking() public view returns (uint) { return _txFeeStacking; }\r\n\tfunction networkFee() public view returns (uint) { return _liqFee; }\r\n\r\n\r\n\r\n\r\n\tconstructor(\r\n\t\t//address _ownerAddress, ver para que lo usabamos\r\n\t\taddress _burnAddress,\r\n\t\taddress _devTeam,\r\n\t\taddress _airDrop,\r\n\t\tuint liqFee\r\n\t)\r\n\r\n\tERC20(\"KriptyCoin\", \"KTC\")\r\n\tERC20Capped(1000000000000000)\r\n\tpublic{\r\n\t\t_setupDecimals(0);\r\n\t\t_mint(address(this), 525000000000000);\r\n\t\t_mint(_burnAddress, 400000000000000);\r\n\t\t_mint(_devTeam, 25000000000000);\r\n\t\t_mint(_airDrop, 50000000000000);\r\n\t\t_liqFee = liqFee;\r\n\t\treleaseDate  = block.timestamp;\r\n\t}\r\n\r\n\tfunction transfer(address recipient, uint256 amount) public override returns (bool) {\r\n\t\t//unit tx_balances[msg.sender]\r\n\t\t//TODO: verificar no se pueda cobrar rewards de mas\r\n\r\n\t\tif(!excludedAcc[msg.sender] || !excludedAcc[recipient]){\r\n\t\t\tuint txFee = SafeMath.div(SafeMath.mul(amount, _liqFee), 100);\r\n\t\t\t_burn(msg.sender, txFee);\r\n\t\t\tamount-= txFee; //no se debia hacer burn, sino quitar el dinero al monto transferido\r\n\t\t\t_txFeeStacking += txFee/2;\r\n\t\t\t\t\r\n\t\t}\r\n\t\t\r\n\t\t//Se transfiere para que baje el balance antes de hacer los calculos correspondientes\r\n\t\t//Se calcula el reward en base al nuevo balance\r\n\t\t//Se agrega en el mapping la reward reclamada\r\n\t\t//Se queman los tokens equivalentes al reward del contrato\r\n\t\t//Y se crean nuevos tokens equivalentes en la cuenta de quien recive el reward\r\n\t\tuint claimed = claimedTokensFromPool[msg.sender];\r\n\t\tsuper._transfer(_msgSender(), recipient, amount*capToken);\r\n\t\tuint txRewards = ((balanceOf(msg.sender) * _txFeeStacking) / _precision) - claimed;\r\n\t\tclaimedTokensFromPool[msg.sender] += txRewards;\r\n\t\t\r\n\t\t//_burn(address(this), txRewards);\r\n\t\t_mint(msg.sender, txRewards);\r\n\r\n        return true;\r\n    }\r\n\tfunction _beforeTokenTransfer(address from, address to, uint256 amount) internal override (ERC20Capped) {\r\n\t\tsuper._beforeTokenTransfer(from, to, amount);\t\r\n    }\r\n\r\n\t// function _txBurn(address account, uint256 amount) internal virtual {\r\n    //     require(account != address(0), \"ERC20: burn from the zero address\");\r\n    //     _balances[account] = _balances[account].sub(amount, \"ERC20: burn amount exceeds balance\");\r\n    //     _totalSupply = _totalSupply.sub(amount);\r\n    // }\r\n\r\n\tfunction _setSwapExclude(address swapPair) public onlyOwner(){\r\n\t\texcludedAcc[swapPair] = true;\r\n\t}\r\n\r\n\tfunction capTokenSupply(uint decimals) public onlyOwner(){\r\n\t\t//solo puede ser 1, 10, 100, 1000, ...\r\n\t\t//_totalSupply /= decimals;\r\n\t\t//_txFeeStacking /= decimals;\r\n\t\tcapToken = decimals;\r\n\t}\r\n\r\n\tfunction setKriptyGovToken(address kriptyAddress) public onlyOwner(){\r\n\t\tkriptyGovToken = kriptyAddress;\r\n\t}\r\n\r\n\tfunction increaseBalance(uint amount) public{\r\n\t\trequire(msg.sender == kriptyGovToken, \"Only Kripty token can call this function\");\r\n\t\t_txFeeStacking += amount;\r\n\t}\r\n\r\n\tfunction  balanceOf(address account) public view override returns (uint256){\r\n\t\tuint ownerBalance = super.balanceOf(account);\r\n\t\tuint txRewards = (ownerBalance * _txFeeStacking) / _precision;//aun no esta bien, problema en presition si se hace cap\r\n\t\tuint claimed = claimedTokensFromPool[account];\r\n\t\tif(txRewards/capToken >= 1){\r\n\t\t\treturn ((ownerBalance + txRewards)/capToken)-claimed;\r\n\t\t}else{\r\n\t\t\treturn (ownerBalance/capToken)-claimed;\r\n\t\t}\r\n\t\t\r\n\t}\r\n\t\r\n}",
  "sourcePath": "I:/Users/Luis/Documents/GitHub/blockchain/krypti/contracts/KriptyCurrency.sol",
  "compiler": {
    "name": "solc",
    "version": "0.7.0+commit.9e61f92b.Emscripten.clang"
  },
  "schemaVersion": "3.3.4",
  "updatedAt": "2021-07-09T01:34:05.007Z",
  "devdoc": {
    "kind": "dev",
    "methods": {
      "allowance(address,address)": {
        "details": "See {IERC20-allowance}."
      },
      "approve(address,uint256)": {
        "details": "See {IERC20-approve}. Requirements: - `spender` cannot be the zero address."
      },
      "balanceOf(address)": {
        "details": "See {IERC20-balanceOf}."
      },
      "cap()": {
        "details": "Returns the cap on the token's total supply."
      },
      "decimals()": {
        "details": "Returns the number of decimals used to get its user representation. For example, if `decimals` equals `2`, a balance of `505` tokens should be displayed to a user as `5,05` (`505 / 10 ** 2`). Tokens usually opt for a value of 18, imitating the relationship between Ether and Wei. This is the value {ERC20} uses, unless {_setupDecimals} is called. NOTE: This information is only used for _display_ purposes: it in no way affects any of the arithmetic of the contract, including {IERC20-balanceOf} and {IERC20-transfer}."
      },
      "decreaseAllowance(address,uint256)": {
        "details": "Atomically decreases the allowance granted to `spender` by the caller. This is an alternative to {approve} that can be used as a mitigation for problems described in {IERC20-approve}. Emits an {Approval} event indicating the updated allowance. Requirements: - `spender` cannot be the zero address. - `spender` must have allowance for the caller of at least `subtractedValue`."
      },
      "increaseAllowance(address,uint256)": {
        "details": "Atomically increases the allowance granted to `spender` by the caller. This is an alternative to {approve} that can be used as a mitigation for problems described in {IERC20-approve}. Emits an {Approval} event indicating the updated allowance. Requirements: - `spender` cannot be the zero address."
      },
      "name()": {
        "details": "Returns the name of the token."
      },
      "owner()": {
        "details": "Returns the address of the current owner."
      },
      "renounceOwnership()": {
        "details": "Leaves the contract without owner. It will not be possible to call `onlyOwner` functions anymore. Can only be called by the current owner. NOTE: Renouncing ownership will leave the contract without an owner, thereby removing any functionality that is only available to the owner."
      },
      "symbol()": {
        "details": "Returns the symbol of the token, usually a shorter version of the name."
      },
      "totalSupply()": {
        "details": "See {IERC20-totalSupply}."
      },
      "transfer(address,uint256)": {
        "details": "See {IERC20-transfer}. Requirements: - `recipient` cannot be the zero address. - the caller must have a balance of at least `amount`."
      },
      "transferFrom(address,address,uint256)": {
        "details": "See {IERC20-transferFrom}. Emits an {Approval} event indicating the updated allowance. This is not required by the EIP. See the note at the beginning of {ERC20}. Requirements: - `sender` and `recipient` cannot be the zero address. - `sender` must have a balance of at least `amount`. - the caller must have allowance for ``sender``'s tokens of at least `amount`."
      },
      "transferOwnership(address)": {
        "details": "Transfers ownership of the contract to a new account (`newOwner`). Can only be called by the current owner."
      }
    },
    "version": 1
  },
  "userdoc": {
    "kind": "user",
    "methods": {},
    "version": 1
  }
}