{
  "contractName": "KryptiGob",
  "abi": [
    {
      "inputs": [
        {
          "internalType": "address",
          "name": "krypti_",
          "type": "address"
        }
      ],
      "stateMutability": "nonpayable",
      "type": "constructor"
    },
    {
      "anonymous": false,
      "inputs": [
        {
          "indexed": false,
          "internalType": "uint256",
          "name": "id",
          "type": "uint256"
        }
      ],
      "name": "ProposalCanceled",
      "type": "event"
    },
    {
      "anonymous": false,
      "inputs": [
        {
          "indexed": false,
          "internalType": "uint256",
          "name": "id",
          "type": "uint256"
        },
        {
          "indexed": false,
          "internalType": "address",
          "name": "proposer",
          "type": "address"
        },
        {
          "indexed": false,
          "internalType": "uint256",
          "name": "startBlock",
          "type": "uint256"
        },
        {
          "indexed": false,
          "internalType": "uint256",
          "name": "endBlock",
          "type": "uint256"
        },
        {
          "indexed": false,
          "internalType": "string",
          "name": "description",
          "type": "string"
        }
      ],
      "name": "ProposalCreated",
      "type": "event"
    },
    {
      "anonymous": false,
      "inputs": [
        {
          "indexed": false,
          "internalType": "uint256",
          "name": "id",
          "type": "uint256"
        }
      ],
      "name": "ProposalExecuted",
      "type": "event"
    },
    {
      "anonymous": false,
      "inputs": [
        {
          "indexed": false,
          "internalType": "address",
          "name": "voter",
          "type": "address"
        },
        {
          "indexed": false,
          "internalType": "uint256",
          "name": "proposalId",
          "type": "uint256"
        },
        {
          "indexed": false,
          "internalType": "bool",
          "name": "proVote",
          "type": "bool"
        },
        {
          "indexed": false,
          "internalType": "uint256",
          "name": "votes",
          "type": "uint256"
        }
      ],
      "name": "Vote",
      "type": "event"
    },
    {
      "inputs": [],
      "name": "Krypti",
      "outputs": [
        {
          "internalType": "contract KryptiInterface",
          "name": "",
          "type": "address"
        }
      ],
      "stateMutability": "view",
      "type": "function"
    },
    {
      "inputs": [
        {
          "internalType": "address",
          "name": "",
          "type": "address"
        }
      ],
      "name": "lastestProposalIds",
      "outputs": [
        {
          "internalType": "uint256",
          "name": "",
          "type": "uint256"
        }
      ],
      "stateMutability": "view",
      "type": "function"
    },
    {
      "inputs": [],
      "name": "name",
      "outputs": [
        {
          "internalType": "string",
          "name": "",
          "type": "string"
        }
      ],
      "stateMutability": "view",
      "type": "function"
    },
    {
      "inputs": [],
      "name": "proposalCount",
      "outputs": [
        {
          "internalType": "uint256",
          "name": "",
          "type": "uint256"
        }
      ],
      "stateMutability": "view",
      "type": "function"
    },
    {
      "inputs": [
        {
          "internalType": "uint256",
          "name": "",
          "type": "uint256"
        }
      ],
      "name": "proposals",
      "outputs": [
        {
          "internalType": "uint256",
          "name": "id",
          "type": "uint256"
        },
        {
          "internalType": "address",
          "name": "proposer",
          "type": "address"
        },
        {
          "internalType": "uint256",
          "name": "startBlock",
          "type": "uint256"
        },
        {
          "internalType": "uint256",
          "name": "endBlock",
          "type": "uint256"
        },
        {
          "internalType": "uint256",
          "name": "proVotes",
          "type": "uint256"
        },
        {
          "internalType": "uint256",
          "name": "againsVotes",
          "type": "uint256"
        },
        {
          "internalType": "bool",
          "name": "canceled",
          "type": "bool"
        },
        {
          "internalType": "bool",
          "name": "executed",
          "type": "bool"
        },
        {
          "internalType": "string",
          "name": "description",
          "type": "string"
        }
      ],
      "stateMutability": "view",
      "type": "function"
    },
    {
      "inputs": [],
      "name": "supportVotes",
      "outputs": [
        {
          "internalType": "uint256",
          "name": "",
          "type": "uint256"
        }
      ],
      "stateMutability": "pure",
      "type": "function"
    },
    {
      "inputs": [],
      "name": "proposalThreshold",
      "outputs": [
        {
          "internalType": "uint256",
          "name": "",
          "type": "uint256"
        }
      ],
      "stateMutability": "pure",
      "type": "function"
    },
    {
      "inputs": [],
      "name": "votingDelay",
      "outputs": [
        {
          "internalType": "uint256",
          "name": "",
          "type": "uint256"
        }
      ],
      "stateMutability": "pure",
      "type": "function"
    },
    {
      "inputs": [],
      "name": "votingPeriod",
      "outputs": [
        {
          "internalType": "uint256",
          "name": "",
          "type": "uint256"
        }
      ],
      "stateMutability": "pure",
      "type": "function"
    },
    {
      "inputs": [
        {
          "internalType": "string",
          "name": "description_",
          "type": "string"
        }
      ],
      "name": "propose",
      "outputs": [
        {
          "internalType": "uint256",
          "name": "",
          "type": "uint256"
        }
      ],
      "stateMutability": "nonpayable",
      "type": "function"
    },
    {
      "inputs": [
        {
          "internalType": "uint256",
          "name": "proposalId",
          "type": "uint256"
        }
      ],
      "name": "execute",
      "outputs": [],
      "stateMutability": "payable",
      "type": "function"
    },
    {
      "inputs": [
        {
          "internalType": "uint256",
          "name": "proposalId",
          "type": "uint256"
        }
      ],
      "name": "cancel",
      "outputs": [],
      "stateMutability": "nonpayable",
      "type": "function"
    },
    {
      "inputs": [
        {
          "internalType": "uint256",
          "name": "proposalId",
          "type": "uint256"
        }
      ],
      "name": "state",
      "outputs": [
        {
          "internalType": "enum KryptiGob.ProposalState",
          "name": "",
          "type": "uint8"
        }
      ],
      "stateMutability": "view",
      "type": "function"
    },
    {
      "inputs": [
        {
          "internalType": "address",
          "name": "voter",
          "type": "address"
        },
        {
          "internalType": "uint256",
          "name": "proposalId",
          "type": "uint256"
        },
        {
          "internalType": "bool",
          "name": "support",
          "type": "bool"
        }
      ],
      "name": "vote",
      "outputs": [],
      "stateMutability": "nonpayable",
      "type": "function"
    }
  ],
  "bytecode": "0x608060405234801561001057600080fd5b506040516118ea3803806118ea8339818101604052602081101561003357600080fd5b8101908080519060200190929190505050806000806101000a81548173ffffffffffffffffffffffffffffffffffffffff021916908373ffffffffffffffffffffffffffffffffffffffff16021790555050611856806100946000396000f3fe6080604052600436106100fa576000357c010000000000000000000000000000000000000000000000000000000090048063aa98df391161009c578063da35c66411610076578063da35c6641461052d578063e1a0257714610558578063f045811c146105bf578063fe0d94c1146105ea576100fa565b8063aa98df39146103e5578063b58131b0146104c1578063d33e1e20146104ec576100fa565b80633932abb1116100d85780633932abb1146102c05780633e4f49e6146102eb57806340e58ee5146103455780637615ce2c14610380576100fa565b8063013cf08b146100ff57806302a251a31461020557806306fdde0314610230575b600080fd5b34801561010b57600080fd5b506101386004803603602081101561012257600080fd5b8101908080359060200190929190505050610618565b604051808a81526020018973ffffffffffffffffffffffffffffffffffffffff1681526020018881526020018781526020018681526020018581526020018415158152602001831515815260200180602001828103825283818151815260200191508051906020019080838360005b838110156101c25780820151818401526020810190506101a7565b50505050905090810190601f1680156101ef5780820380516001836020036101000a031916815260200191505b509a505050505050505050505060405180910390f35b34801561021157600080fd5b5061021a610738565b6040518082815260200191505060405180910390f35b34801561023c57600080fd5b50610245610742565b6040518080602001828103825283818151815260200191508051906020019080838360005b8381101561028557808201518184015260208101905061026a565b50505050905090810190601f1680156102b25780820380516001836020036101000a031916815260200191505b509250505060405180910390f35b3480156102cc57600080fd5b506102d561077b565b6040518082815260200191505060405180910390f35b3480156102f757600080fd5b506103246004803603602081101561030e57600080fd5b8101908080359060200190929190505050610784565b6040518082600681111561033457fe5b815260200191505060405180910390f35b34801561035157600080fd5b5061037e6004803603602081101561036857600080fd5b81019080803590602001909291905050506108c8565b005b34801561038c57600080fd5b506103cf600480360360208110156103a357600080fd5b81019080803573ffffffffffffffffffffffffffffffffffffffff169060200190929190505050610ad2565b6040518082815260200191505060405180910390f35b3480156103f157600080fd5b506104ab6004803603602081101561040857600080fd5b810190808035906020019064010000000081111561042557600080fd5b82018360208201111561043757600080fd5b8035906020019184600183028401116401000000008311171561045957600080fd5b91908080601f016020809104026020016040519081016040528093929190818152602001838380828437600081840152601f19601f820116905080830192505050505050509192919290505050610aea565b6040518082815260200191505060405180910390f35b3480156104cd57600080fd5b506104d66110b7565b6040518082815260200191505060405180910390f35b3480156104f857600080fd5b506105016110c1565b604051808273ffffffffffffffffffffffffffffffffffffffff16815260200191505060405180910390f35b34801561053957600080fd5b506105426110e5565b6040518082815260200191505060405180910390f35b34801561056457600080fd5b506105bd6004803603606081101561057b57600080fd5b81019080803573ffffffffffffffffffffffffffffffffffffffff169060200190929190803590602001909291908035151590602001909291905050506110eb565b005b3480156105cb57600080fd5b506105d4611545565b6040518082815260200191505060405180910390f35b6106166004803603602081101561060057600080fd5b8101908080359060200190929190505050611550565b005b60026020528060005260406000206000915090508060000154908060010160009054906101000a900473ffffffffffffffffffffffffffffffffffffffff16908060020154908060030154908060040154908060050154908060060160009054906101000a900460ff16908060060160019054906101000a900460ff1690806007018054600181600116156101000203166002900480601f01602080910402602001604051908101604052809291908181526020018280546001816001161561010002031660029004801561072e5780601f106107035761010080835404028352916020019161072e565b820191906000526020600020905b81548152906001019060200180831161071157829003601f168201915b5050505050905089565b6000614380905090565b6040518060400160405280601a81526020017f4b726970747920476f7665726e616e636520636f6e747261637400000000000081525081565b60006001905090565b600081600154101580156107985750600082115b61080a576040517f08c379a00000000000000000000000000000000000000000000000000000000081526004018080602001828103825260138152602001807f696e76616c69642070726f706f73616c2069640000000000000000000000000081525060200191505060405180910390fd5b60006002600084815260200190815260200160002090508060060160009054906101000a900460ff16156108425760029150506108c3565b806002015443116108575760009150506108c3565b8060030154431161086c5760019150506108c3565b8060050154816004015411158061088d5750610886611545565b8160040154105b1561089c5760039150506108c3565b8060060160019054906101000a900460ff16156108bd5760069150506108c3565b60049150505b919050565b6006808111156108d457fe5b6108dd82610784565b60068111156108e857fe5b141561093f576040517f08c379a00000000000000000000000000000000000000000000000000000000081526004018080602001828103825260378152602001806117c36037913960400191505060405180910390fd5b600060026000838152602001908152602001600020905060018160060160006101000a81548160ff02191690831515021790555060005b6001826009018054905003811015610a965760008054906101000a900473ffffffffffffffffffffffffffffffffffffffff1673ffffffffffffffffffffffffffffffffffffffff1663e724529c8360090183815481106109d357fe5b9060005260206000200160009054906101000a900473ffffffffffffffffffffffffffffffffffffffff1660006040518363ffffffff167c0100000000000000000000000000000000000000000000000000000000028152600401808373ffffffffffffffffffffffffffffffffffffffff168152602001821515815260200192505050600060405180830381600087803b158015610a7157600080fd5b505af1158015610a85573d6000803e3d6000fd5b505050508080600101915050610976565b507f789cf55be980739dad1d0699b93b58e806b51c9d96619bfa8fe0a28abaa7b30c826040518082815260200191505060405180910390a15050565b60036020528060005260406000206000915090505481565b6000610af46110b7565b60008054906101000a900473ffffffffffffffffffffffffffffffffffffffff1673ffffffffffffffffffffffffffffffffffffffff166370a08231336040518263ffffffff167c0100000000000000000000000000000000000000000000000000000000028152600401808273ffffffffffffffffffffffffffffffffffffffff16815260200191505060206040518083038186803b158015610b9757600080fd5b505afa158015610bab573d6000803e3d6000fd5b505050506040513d6020811015610bc157600080fd5b810190808051906020019092919050505011610c28576040517f08c379a00000000000000000000000000000000000000000000000000000000081526004018080602001828103825260278152602001806117fa6027913960400191505060405180910390fd5b6000600360003373ffffffffffffffffffffffffffffffffffffffff1673ffffffffffffffffffffffffffffffffffffffff168152602001908152602001600020549050600081146110b0576000610c7f82610784565b905060016006811115610c8e57fe5b816006811115610c9a57fe5b1415610cf1576040517f08c379a00000000000000000000000000000000000000000000000000000000081526004018080602001828103825260218152602001806117816021913960400191505060405180910390fd5b60006006811115610cfe57fe5b816006811115610d0a57fe5b1415610d61576040517f08c379a00000000000000000000000000000000000000000000000000000000081526004018080602001828103825260218152602001806117a26021913960400191505060405180910390fd5b6000610d6b61077b565b430190506000610d79610738565b82019050600154600260006001548152602001908152602001600020600001819055503360026000600154815260200190815260200160002060010160006101000a81548173ffffffffffffffffffffffffffffffffffffffff021916908373ffffffffffffffffffffffffffffffffffffffff16021790555081600260006001548152602001908152602001600020600201819055508060026000600154815260200190815260200160002060030181905550600060026000600154815260200190815260200160002060040181905550600060026000600154815260200190815260200160002060050181905550600060026000600154815260200190815260200160002060060160006101000a81548160ff021916908315150217905550600060026000600154815260200190815260200160002060060160016101000a81548160ff021916908315150217905550856002600060015481526020019081526020016000206007019080519060200190610ef79291906116e3565b50600260006001548152602001908152602001600020600001546003600060026000600154815260200190815260200160002060010160009054906101000a900473ffffffffffffffffffffffffffffffffffffffff1673ffffffffffffffffffffffffffffffffffffffff1673ffffffffffffffffffffffffffffffffffffffff168152602001908152602001600020819055506001600081548092919060010191905055507fa00fcf4f5e03cc2f4818b8f380a8f2a06479e49bf0765e5fec09aebdaf922bbc6002600060018054038152602001908152602001600020600001543384848a604051808681526020018573ffffffffffffffffffffffffffffffffffffffff16815260200184815260200183815260200180602001828103825283818151815260200191508051906020019080838360005b8381101561104c578082015181840152602081019050611031565b50505050905090810190601f1680156110795780820380516001836020036101000a031916815260200191505b50965050505050505060405180910390a16002600060018054038152602001908152602001600020600001549450505050506110b2565b505b919050565b6000612710905090565b60008054906101000a900473ffffffffffffffffffffffffffffffffffffffff1681565b60015481565b600160068111156110f857fe5b61110183610784565b600681111561110c57fe5b1461117f576040517f08c379a00000000000000000000000000000000000000000000000000000000081526004018080602001828103825260108152602001807f566f74696e6720697320636c6f7365640000000000000000000000000000000081525060200191505060405180910390fd5b600060026000848152602001908152602001600020905060008160080160008673ffffffffffffffffffffffffffffffffffffffff1673ffffffffffffffffffffffffffffffffffffffff1681526020019081526020016000209050600015158160000160009054906101000a900460ff16151514611266576040517f08c379a00000000000000000000000000000000000000000000000000000000081526004018080602001828103825260138152602001807f766f74657220616c726561647920766f7465640000000000000000000000000081525060200191505060405180910390fd5b60008060009054906101000a900473ffffffffffffffffffffffffffffffffffffffff1673ffffffffffffffffffffffffffffffffffffffff166370a08231876040518263ffffffff167c0100000000000000000000000000000000000000000000000000000000028152600401808273ffffffffffffffffffffffffffffffffffffffff16815260200191505060206040518083038186803b15801561130c57600080fd5b505afa158015611320573d6000803e3d6000fd5b505050506040513d602081101561133657600080fd5b81019080805190602001909291905050509050831561135d57808360040181905550611367565b8083600501819055505b82600901869080600181540180825580915050600190039060005260206000200160009091909190916101000a81548173ffffffffffffffffffffffffffffffffffffffff021916908373ffffffffffffffffffffffffffffffffffffffff16021790555060018260000160006101000a81548160ff021916908315150217905550838260000160016101000a81548160ff02191690831515021790555080826001018190555060008054906101000a900473ffffffffffffffffffffffffffffffffffffffff1673ffffffffffffffffffffffffffffffffffffffff1663e724529c8760016040518363ffffffff167c0100000000000000000000000000000000000000000000000000000000028152600401808373ffffffffffffffffffffffffffffffffffffffff168152602001821515815260200192505050600060405180830381600087803b1580156114be57600080fd5b505af11580156114d2573d6000803e3d6000fd5b505050507f65f8c50a40ae46ed6b244ba59b93d321216c9638f156760e7f851c2536a3add286868684604051808573ffffffffffffffffffffffffffffffffffffffff168152602001848152602001831515815260200182815260200194505050505060405180910390a1505050505050565b6000620186a0905090565b600060026000838152602001908152602001600020905060018160060160016101000a81548160ff02191690831515021790555060005b60018260090180549050038110156116a75760008054906101000a900473ffffffffffffffffffffffffffffffffffffffff1673ffffffffffffffffffffffffffffffffffffffff1663e724529c8360090183815481106115e457fe5b9060005260206000200160009054906101000a900473ffffffffffffffffffffffffffffffffffffffff1660006040518363ffffffff167c0100000000000000000000000000000000000000000000000000000000028152600401808373ffffffffffffffffffffffffffffffffffffffff168152602001821515815260200192505050600060405180830381600087803b15801561168257600080fd5b505af1158015611696573d6000803e3d6000fd5b505050508080600101915050611587565b507f712ae1383f79ac853f8d882153778e0260ef8f03b504e2866e0593e04d2b291f826040518082815260200191505060405180910390a15050565b828054600181600116156101000203166002900490600052602060002090601f016020900481019282601f1061172457805160ff1916838001178555611752565b82800160010185558215611752579182015b82811115611751578251825591602001919060010190611736565b5b50905061175f9190611763565b5090565b5b8082111561177c576000816000905550600101611764565b509056fe466f756e6420616e206163746976652070726f706f73616c2066726f6d20796f75466f756e6420612070656e64696e672070726f706f73616c2066726f6d20796f754e6f2073652070756564652063616e63656c617220756e612070726f707565737461207175652079612066756520656a6563757461646150726f706f73657220766f7465732062656c6f772070726f706f73616c207468726573686f6c64a2646970667358221220cfc2a435701a1a308d1435cda3d08f20375c2be4b69f2639edc61aece3e1d8cf64736f6c63430007000033",
  "immutableReferences": {},
  "source": "pragma solidity ^0.7.0;\n\ncontract KryptiGob {\n\n    string public constant name = \"Kripty Governance contract\";\n\n    function supportVotes() public pure returns (uint) { return 100000; }\n\n    function proposalThreshold() public pure returns (uint) { return 10000; }\n    \n    function votingDelay() public pure returns (uint) { return 1; } // 1 block\n\n    function votingPeriod() public pure returns (uint) { return 17280; } //3 days in blocks\n\n    KryptiInterface public Krypti;\n\n    uint public proposalCount;\n\n    struct Proposal {\n        uint id;\n        address proposer;\n        uint startBlock;\n        uint endBlock;\n        uint proVotes;\n        uint againsVotes;\n        bool canceled;\n        bool executed;\n        string description;\n        mapping (address => Receipt) receipts;\n        address[] keys;\n    }\n\n    struct Receipt {\n        bool hasVoted;\n        bool proVote;\n        uint votes;\n    }\n\n    enum ProposalState {\n        Pending,\n        Active,\n        Canceled,\n        Defeated,\n        Succeeded,\n        Expired,\n        Executed\n    }\n\n    mapping (uint => Proposal) public proposals;\n    mapping (address => uint) public lastestProposalIds;\n\n    event ProposalCreated(uint id, address proposer, uint startBlock, uint endBlock, string description);\n    event Vote(address voter, uint proposalId, bool proVote, uint votes);\n    event ProposalCanceled(uint id);\n    event ProposalExecuted(uint id);\n\n    constructor(address krypti_) public {\n        Krypti = KryptiInterface(krypti_);\n    }\n\n    function propose(string memory description_) public returns (uint) {\n        require(Krypti.balanceOf(msg.sender) > proposalThreshold(), \"Proposer votes below proposal threshold\");\n\n        uint lastestProposalId = lastestProposalIds[msg.sender];\n        if (lastestProposalId != 0) {\n            ProposalState proposalState = state(lastestProposalId);\n            require(proposalState != ProposalState.Active, \"Found an active proposal from you\");\n            require(proposalState != ProposalState.Pending, \"Found a pending proposal from you\");\n\n            uint startBlock = block.number + votingDelay();\n            uint endBlock = startBlock + votingPeriod();\n\n            proposals[proposalCount].id = proposalCount;\n            proposals[proposalCount].proposer = msg.sender;\n            proposals[proposalCount].startBlock = startBlock;\n            proposals[proposalCount].endBlock = endBlock;\n            proposals[proposalCount].proVotes = 0;\n            proposals[proposalCount].againsVotes = 0;\n            proposals[proposalCount].canceled = false;\n            proposals[proposalCount].executed = false;\n            proposals[proposalCount].description = description_;\n\n            lastestProposalIds[proposals[proposalCount].proposer] = proposals[proposalCount].id;\n            proposalCount++;\n\n            emit ProposalCreated(proposals[proposalCount - 1].id, msg.sender, startBlock, endBlock, description_);\n            return proposals[proposalCount - 1].id;\n        }\n    }\n\n    function execute(uint proposalId) public payable {\n        Proposal storage proposal = proposals[proposalId];\n\n        proposal.executed = true;\n\n        for(uint i = 0; i < proposal.keys.length - 1 ; i++){\n            Krypti.freezeAccount(proposal.keys[i] , false);\n        }\n\n        emit ProposalExecuted(proposalId);\n    }\n\n    function cancel(uint proposalId) public {\n        //ProposalState state = \n        require(state(proposalId) != ProposalState.Executed, \"No se puede cancelar una propuesta que ya fue ejecutada\");\n\n        Proposal storage proposal = proposals[proposalId];\n        proposal.canceled = true;\n\n        for(uint i = 0; i < proposal.keys.length - 1 ; i++){\n            Krypti.freezeAccount(proposal.keys[i] , false);\n        }\n\n        emit ProposalCanceled(proposalId);\n    }\n\n    function state(uint proposalId) public view returns (ProposalState) {\n        require(proposalCount >= proposalId && proposalId > 0, \"invalid proposal id\");\n        Proposal storage proposal = proposals[proposalId];\n        if (proposal.canceled) {\n            return ProposalState.Canceled;\n        } else if (block.number <= proposal.startBlock) {\n            return ProposalState.Pending;\n        } else if (block.number <= proposal.endBlock) {\n            return ProposalState.Active;\n        } else if (proposal.proVotes <= proposal.againsVotes || proposal.proVotes < supportVotes()) {\n            return ProposalState.Defeated;\n        } else if (proposal.executed) {\n            return ProposalState.Executed;\n        //} else if (block.timestamp >= ) TODO: retornar expired\n        } else {\n            return ProposalState.Succeeded;\n        }\n    }\n\n    function vote(address voter, uint proposalId, bool support) public {\n        require(state(proposalId) == ProposalState.Active, \"Voting is closed\");\n        Proposal storage proposal = proposals[proposalId];\n        Receipt storage receipt = proposal.receipts[voter];\n        require(receipt.hasVoted == false , \"voter already voted\");\n        \n        uint votes = Krypti.balanceOf(voter);\n\n        if (support) {\n            proposal.proVotes = votes;\n        } else {\n            proposal.againsVotes = votes;\n        }\n        proposal.keys.push(voter);\n\n        receipt.hasVoted = true;\n        receipt.proVote = support;\n        receipt.votes = votes;\n\n        Krypti.freezeAccount(voter, true);\n\n        emit Vote(voter, proposalId, support, votes);\n\n    }\n \n}\n\ninterface KryptiInterface {\n        function balanceOf(address account) external view returns (uint);\n        function freezeAccount(address target, bool freeze) external;\n}",
  "sourcePath": "/Users/soporte.fractall/Documents/Projects/krypti/contracts/KryptiGob.sol",
  "compiler": {
    "name": "solc",
    "version": "0.7.0+commit.9e61f92b.Emscripten.clang"
  },
  "schemaVersion": "3.3.4",
  "updatedAt": "2021-03-18T19:55:35.453Z",
  "devdoc": {
    "kind": "dev",
    "methods": {},
    "version": 1
  },
  "userdoc": {
    "kind": "user",
    "methods": {},
    "version": 1
  }
}