{
  "contractName": "KryptiGob",
  "abi": [
    {
      "inputs": [
        {
          "internalType": "address",
          "name": "krypti_",
          "type": "address"
        }
      ],
      "stateMutability": "nonpayable",
      "type": "constructor"
    },
    {
      "anonymous": false,
      "inputs": [
        {
          "indexed": true,
          "internalType": "address",
          "name": "previousOwner",
          "type": "address"
        },
        {
          "indexed": true,
          "internalType": "address",
          "name": "newOwner",
          "type": "address"
        }
      ],
      "name": "OwnershipTransferred",
      "type": "event"
    },
    {
      "anonymous": false,
      "inputs": [
        {
          "indexed": false,
          "internalType": "uint256",
          "name": "id",
          "type": "uint256"
        }
      ],
      "name": "ProposalCanceled",
      "type": "event"
    },
    {
      "anonymous": false,
      "inputs": [
        {
          "indexed": false,
          "internalType": "uint256",
          "name": "id",
          "type": "uint256"
        },
        {
          "indexed": false,
          "internalType": "address",
          "name": "proposer",
          "type": "address"
        },
        {
          "indexed": false,
          "internalType": "uint256",
          "name": "startBlock",
          "type": "uint256"
        },
        {
          "indexed": false,
          "internalType": "uint256",
          "name": "endBlock",
          "type": "uint256"
        },
        {
          "indexed": false,
          "internalType": "string",
          "name": "description",
          "type": "string"
        }
      ],
      "name": "ProposalCreated",
      "type": "event"
    },
    {
      "anonymous": false,
      "inputs": [
        {
          "indexed": false,
          "internalType": "uint256",
          "name": "id",
          "type": "uint256"
        }
      ],
      "name": "ProposalExecuted",
      "type": "event"
    },
    {
      "anonymous": false,
      "inputs": [
        {
          "indexed": false,
          "internalType": "address",
          "name": "voter",
          "type": "address"
        },
        {
          "indexed": false,
          "internalType": "uint256",
          "name": "proposalId",
          "type": "uint256"
        },
        {
          "indexed": false,
          "internalType": "bool",
          "name": "proVote",
          "type": "bool"
        },
        {
          "indexed": false,
          "internalType": "uint256",
          "name": "votes",
          "type": "uint256"
        }
      ],
      "name": "Vote",
      "type": "event"
    },
    {
      "inputs": [],
      "name": "Krypti",
      "outputs": [
        {
          "internalType": "contract KryptiInterface",
          "name": "",
          "type": "address"
        }
      ],
      "stateMutability": "view",
      "type": "function"
    },
    {
      "inputs": [
        {
          "internalType": "address",
          "name": "",
          "type": "address"
        }
      ],
      "name": "lastestProposalIds",
      "outputs": [
        {
          "internalType": "uint256",
          "name": "",
          "type": "uint256"
        }
      ],
      "stateMutability": "view",
      "type": "function"
    },
    {
      "inputs": [],
      "name": "name",
      "outputs": [
        {
          "internalType": "string",
          "name": "",
          "type": "string"
        }
      ],
      "stateMutability": "view",
      "type": "function"
    },
    {
      "inputs": [],
      "name": "owner",
      "outputs": [
        {
          "internalType": "address",
          "name": "",
          "type": "address"
        }
      ],
      "stateMutability": "view",
      "type": "function"
    },
    {
      "inputs": [],
      "name": "proposalCount",
      "outputs": [
        {
          "internalType": "uint256",
          "name": "",
          "type": "uint256"
        }
      ],
      "stateMutability": "view",
      "type": "function"
    },
    {
      "inputs": [
        {
          "internalType": "uint256",
          "name": "",
          "type": "uint256"
        }
      ],
      "name": "proposals",
      "outputs": [
        {
          "internalType": "uint256",
          "name": "id",
          "type": "uint256"
        },
        {
          "internalType": "address",
          "name": "proposer",
          "type": "address"
        },
        {
          "internalType": "uint256",
          "name": "startBlock",
          "type": "uint256"
        },
        {
          "internalType": "uint256",
          "name": "endBlock",
          "type": "uint256"
        },
        {
          "internalType": "uint256",
          "name": "proVotes",
          "type": "uint256"
        },
        {
          "internalType": "uint256",
          "name": "againsVotes",
          "type": "uint256"
        },
        {
          "internalType": "bool",
          "name": "canceled",
          "type": "bool"
        },
        {
          "internalType": "bool",
          "name": "executed",
          "type": "bool"
        },
        {
          "internalType": "string",
          "name": "description",
          "type": "string"
        }
      ],
      "stateMutability": "view",
      "type": "function"
    },
    {
      "inputs": [],
      "name": "renounceOwnership",
      "outputs": [],
      "stateMutability": "nonpayable",
      "type": "function"
    },
    {
      "inputs": [
        {
          "internalType": "address",
          "name": "newOwner",
          "type": "address"
        }
      ],
      "name": "transferOwnership",
      "outputs": [],
      "stateMutability": "nonpayable",
      "type": "function"
    },
    {
      "inputs": [],
      "name": "supportVotes",
      "outputs": [
        {
          "internalType": "uint256",
          "name": "",
          "type": "uint256"
        }
      ],
      "stateMutability": "pure",
      "type": "function"
    },
    {
      "inputs": [],
      "name": "proposalThreshold",
      "outputs": [
        {
          "internalType": "uint256",
          "name": "",
          "type": "uint256"
        }
      ],
      "stateMutability": "pure",
      "type": "function"
    },
    {
      "inputs": [],
      "name": "votingDelay",
      "outputs": [
        {
          "internalType": "uint256",
          "name": "",
          "type": "uint256"
        }
      ],
      "stateMutability": "pure",
      "type": "function"
    },
    {
      "inputs": [],
      "name": "votingPeriod",
      "outputs": [
        {
          "internalType": "uint256",
          "name": "",
          "type": "uint256"
        }
      ],
      "stateMutability": "pure",
      "type": "function"
    },
    {
      "inputs": [
        {
          "internalType": "string",
          "name": "description_",
          "type": "string"
        }
      ],
      "name": "propose",
      "outputs": [
        {
          "internalType": "uint256",
          "name": "",
          "type": "uint256"
        }
      ],
      "stateMutability": "nonpayable",
      "type": "function"
    },
    {
      "inputs": [
        {
          "internalType": "uint256",
          "name": "proposalId",
          "type": "uint256"
        }
      ],
      "name": "execute",
      "outputs": [],
      "stateMutability": "payable",
      "type": "function"
    },
    {
      "inputs": [
        {
          "internalType": "uint256",
          "name": "proposalId",
          "type": "uint256"
        }
      ],
      "name": "cancel",
      "outputs": [],
      "stateMutability": "nonpayable",
      "type": "function"
    },
    {
      "inputs": [
        {
          "internalType": "uint256",
          "name": "proposalId",
          "type": "uint256"
        }
      ],
      "name": "state",
      "outputs": [
        {
          "internalType": "enum KryptiGob.ProposalState",
          "name": "",
          "type": "uint8"
        }
      ],
      "stateMutability": "view",
      "type": "function"
    },
    {
      "inputs": [
        {
          "internalType": "address",
          "name": "voter",
          "type": "address"
        },
        {
          "internalType": "uint256",
          "name": "proposalId",
          "type": "uint256"
        },
        {
          "internalType": "bool",
          "name": "support",
          "type": "bool"
        }
      ],
      "name": "vote",
      "outputs": [],
      "stateMutability": "nonpayable",
      "type": "function"
    }
  ],
  "bytecode": "0x608060405234801561001057600080fd5b506040516121503803806121508339818101604052602081101561003357600080fd5b8101908080519060200190929190505050600061005d610142640100000000026401000000009004565b9050806000806101000a81548173ffffffffffffffffffffffffffffffffffffffff021916908373ffffffffffffffffffffffffffffffffffffffff1602179055508073ffffffffffffffffffffffffffffffffffffffff16600073ffffffffffffffffffffffffffffffffffffffff167f8be0079c531659141344cd1fd0a4f28419497f9722a3daafe3b4186f6b6457e060405160405180910390a35080600160006101000a81548173ffffffffffffffffffffffffffffffffffffffff021916908373ffffffffffffffffffffffffffffffffffffffff1602179055505061014a565b600033905090565b611ff7806101596000396000f3fe60806040526004361061011b576000357c0100000000000000000000000000000000000000000000000000000000900480638da5cb5b116100b2578063da35c66411610081578063da35c664146105a6578063e1a02577146105d1578063f045811c14610638578063f2fde38b14610663578063fe0d94c1146106b45761011b565b80638da5cb5b1461041d578063aa98df391461045e578063b58131b01461053a578063d33e1e20146105655761011b565b80633e4f49e6116100ee5780633e4f49e61461030c57806340e58ee514610366578063715018a6146103a15780637615ce2c146103b85761011b565b8063013cf08b1461012057806302a251a31461022657806306fdde03146102515780633932abb1146102e1575b600080fd5b34801561012c57600080fd5b506101596004803603602081101561014357600080fd5b81019080803590602001909291905050506106e2565b604051808a81526020018973ffffffffffffffffffffffffffffffffffffffff1681526020018881526020018781526020018681526020018581526020018415158152602001831515815260200180602001828103825283818151815260200191508051906020019080838360005b838110156101e35780820151818401526020810190506101c8565b50505050905090810190601f1680156102105780820380516001836020036101000a031916815260200191505b509a505050505050505050505060405180910390f35b34801561023257600080fd5b5061023b610802565b6040518082815260200191505060405180910390f35b34801561025d57600080fd5b5061026661080c565b6040518080602001828103825283818151815260200191508051906020019080838360005b838110156102a657808201518184015260208101905061028b565b50505050905090810190601f1680156102d35780820380516001836020036101000a031916815260200191505b509250505060405180910390f35b3480156102ed57600080fd5b506102f6610845565b6040518082815260200191505060405180910390f35b34801561031857600080fd5b506103456004803603602081101561032f57600080fd5b810190808035906020019092919050505061084e565b6040518082600681111561035557fe5b815260200191505060405180910390f35b34801561037257600080fd5b5061039f6004803603602081101561038957600080fd5b8101908080359060200190929190505050610992565b005b3480156103ad57600080fd5b506103b6610c74565b005b3480156103c457600080fd5b50610407600480360360208110156103db57600080fd5b81019080803573ffffffffffffffffffffffffffffffffffffffff169060200190929190505050610de1565b6040518082815260200191505060405180910390f35b34801561042957600080fd5b50610432610df9565b604051808273ffffffffffffffffffffffffffffffffffffffff16815260200191505060405180910390f35b34801561046a57600080fd5b506105246004803603602081101561048157600080fd5b810190808035906020019064010000000081111561049e57600080fd5b8201836020820111156104b057600080fd5b803590602001918460018302840111640100000000831117156104d257600080fd5b91908080601f016020809104026020016040519081016040528093929190818152602001838380828437600081840152601f19601f820116905080830192505050505050509192919290505050610e22565b6040518082815260200191505060405180910390f35b34801561054657600080fd5b5061054f6114b2565b6040518082815260200191505060405180910390f35b34801561057157600080fd5b5061057a6114bc565b604051808273ffffffffffffffffffffffffffffffffffffffff16815260200191505060405180910390f35b3480156105b257600080fd5b506105bb6114e2565b6040518082815260200191505060405180910390f35b3480156105dd57600080fd5b50610636600480360360608110156105f457600080fd5b81019080803573ffffffffffffffffffffffffffffffffffffffff169060200190929190803590602001909291908035151590602001909291905050506114e8565b005b34801561064457600080fd5b5061064d611945565b6040518082815260200191505060405180910390f35b34801561066f57600080fd5b506106b26004803603602081101561068657600080fd5b81019080803573ffffffffffffffffffffffffffffffffffffffff169060200190929190505050611950565b005b6106e0600480360360208110156106ca57600080fd5b8101908080359060200190929190505050611b42565b005b60036020528060005260406000206000915090508060000154908060010160009054906101000a900473ffffffffffffffffffffffffffffffffffffffff16908060020154908060030154908060040154908060050154908060060160009054906101000a900460ff16908060060160019054906101000a900460ff1690806007018054600181600116156101000203166002900480601f0160208091040260200160405190810160405280929190818152602001828054600181600116156101000203166002900480156107f85780601f106107cd576101008083540402835291602001916107f8565b820191906000526020600020905b8154815290600101906020018083116107db57829003601f168201915b5050505050905089565b6000614380905090565b6040518060400160405280601a81526020017f4b726970747920476f7665726e616e636520636f6e747261637400000000000081525081565b60006001905090565b600081600254101580156108625750600082115b6108d4576040517f08c379a00000000000000000000000000000000000000000000000000000000081526004018080602001828103825260138152602001807f696e76616c69642070726f706f73616c2069640000000000000000000000000081525060200191505060405180910390fd5b60006003600084815260200190815260200160002090508060060160009054906101000a900460ff161561090c57600291505061098d565b8060020154431161092157600091505061098d565b8060030154431161093657600191505061098d565b806005015481600401541115806109575750610950611945565b8160040154105b1561096657600391505061098d565b8060060160019054906101000a900460ff161561098757600691505061098d565b60049150505b919050565b61099a611e25565b73ffffffffffffffffffffffffffffffffffffffff166109b8610df9565b73ffffffffffffffffffffffffffffffffffffffff1614610a41576040517f08c379a00000000000000000000000000000000000000000000000000000000081526004018080602001828103825260208152602001807f4f776e61626c653a2063616c6c6572206973206e6f7420746865206f776e657281525060200191505060405180910390fd5b600680811115610a4d57fe5b610a568261084e565b6006811115610a6157fe5b141580610a8d575060046006811115610a7657fe5b610a7f8261084e565b6006811115610a8a57fe5b14155b610ae2576040517f08c379a0000000000000000000000000000000000000000000000000000000008152600401808060200182810382526037815260200180611f336037913960400191505060405180910390fd5b600060036000838152602001908152602001600020905060018160060160006101000a81548160ff02191690831515021790555060005b8160090180549050811015610c3857600160009054906101000a900473ffffffffffffffffffffffffffffffffffffffff1673ffffffffffffffffffffffffffffffffffffffff1663e724529c836009018381548110610b7557fe5b9060005260206000200160009054906101000a900473ffffffffffffffffffffffffffffffffffffffff1660006040518363ffffffff167c0100000000000000000000000000000000000000000000000000000000028152600401808373ffffffffffffffffffffffffffffffffffffffff168152602001821515815260200192505050600060405180830381600087803b158015610c1357600080fd5b505af1158015610c27573d6000803e3d6000fd5b505050508080600101915050610b19565b507f789cf55be980739dad1d0699b93b58e806b51c9d96619bfa8fe0a28abaa7b30c826040518082815260200191505060405180910390a15050565b610c7c611e25565b73ffffffffffffffffffffffffffffffffffffffff16610c9a610df9565b73ffffffffffffffffffffffffffffffffffffffff1614610d23576040517f08c379a00000000000000000000000000000000000000000000000000000000081526004018080602001828103825260208152602001807f4f776e61626c653a2063616c6c6572206973206e6f7420746865206f776e657281525060200191505060405180910390fd5b600073ffffffffffffffffffffffffffffffffffffffff1660008054906101000a900473ffffffffffffffffffffffffffffffffffffffff1673ffffffffffffffffffffffffffffffffffffffff167f8be0079c531659141344cd1fd0a4f28419497f9722a3daafe3b4186f6b6457e060405160405180910390a360008060006101000a81548173ffffffffffffffffffffffffffffffffffffffff021916908373ffffffffffffffffffffffffffffffffffffffff160217905550565b60046020528060005260406000206000915090505481565b60008060009054906101000a900473ffffffffffffffffffffffffffffffffffffffff16905090565b6000610e2c6114b2565b600160009054906101000a900473ffffffffffffffffffffffffffffffffffffffff1673ffffffffffffffffffffffffffffffffffffffff166370a08231336040518263ffffffff167c0100000000000000000000000000000000000000000000000000000000028152600401808273ffffffffffffffffffffffffffffffffffffffff16815260200191505060206040518083038186803b158015610ed157600080fd5b505afa158015610ee5573d6000803e3d6000fd5b505050506040513d6020811015610efb57600080fd5b81019080805190602001909291905050501015610f63576040517f08c379a0000000000000000000000000000000000000000000000000000000008152600401808060200182810382526027815260200180611f6a6027913960400191505060405180910390fd5b6000600460003373ffffffffffffffffffffffffffffffffffffffff1673ffffffffffffffffffffffffffffffffffffffff1681526020019081526020016000205490506000811461109e576000610fba8261084e565b905060016006811115610fc957fe5b816006811115610fd557fe5b141561102c576040517f08c379a0000000000000000000000000000000000000000000000000000000008152600401808060200182810382526021815260200180611ecb6021913960400191505060405180910390fd5b6000600681111561103957fe5b81600681111561104557fe5b141561109c576040517f08c379a0000000000000000000000000000000000000000000000000000000008152600401808060200182810382526021815260200180611f126021913960400191505060405180910390fd5b505b60006110a8610845565b4301905060006110b6610802565b82019050600260008154809291906001019190505550600254600360006002548152602001908152602001600020600001819055503360036000600254815260200190815260200160002060010160006101000a81548173ffffffffffffffffffffffffffffffffffffffff021916908373ffffffffffffffffffffffffffffffffffffffff16021790555081600360006002548152602001908152602001600020600201819055508060036000600254815260200190815260200160002060030181905550600060036000600254815260200190815260200160002060040181905550600060036000600254815260200190815260200160002060050181905550600060036000600254815260200190815260200160002060060160006101000a81548160ff021916908315150217905550600060036000600254815260200190815260200160002060060160016101000a81548160ff021916908315150217905550846003600060025481526020019081526020016000206007019080519060200190611246929190611e2d565b50600360006002548152602001908152602001600020600001546004600060036000600254815260200190815260200160002060010160009054906101000a900473ffffffffffffffffffffffffffffffffffffffff1673ffffffffffffffffffffffffffffffffffffffff1673ffffffffffffffffffffffffffffffffffffffff16815260200190815260200160002081905550600160009054906101000a900473ffffffffffffffffffffffffffffffffffffffff1673ffffffffffffffffffffffffffffffffffffffff1663e724529c3360016040518363ffffffff167c0100000000000000000000000000000000000000000000000000000000028152600401808373ffffffffffffffffffffffffffffffffffffffff168152602001821515815260200192505050600060405180830381600087803b15801561138d57600080fd5b505af11580156113a1573d6000803e3d6000fd5b505050507fa00fcf4f5e03cc2f4818b8f380a8f2a06479e49bf0765e5fec09aebdaf922bbc6003600060025481526020019081526020016000206000015433848489604051808681526020018573ffffffffffffffffffffffffffffffffffffffff16815260200184815260200183815260200180602001828103825283818151815260200191508051906020019080838360005b83811015611451578082015181840152602081019050611436565b50505050905090810190601f16801561147e5780820380516001836020036101000a031916815260200191505b50965050505050505060405180910390a1600360006002548152602001908152602001600020600001549350505050919050565b6000612710905090565b600160009054906101000a900473ffffffffffffffffffffffffffffffffffffffff1681565b60025481565b600160068111156114f557fe5b6114fe8361084e565b600681111561150957fe5b1461157c576040517f08c379a00000000000000000000000000000000000000000000000000000000081526004018080602001828103825260108152602001807f566f74696e6720697320636c6f7365640000000000000000000000000000000081525060200191505060405180910390fd5b600060036000848152602001908152602001600020905060008160080160008673ffffffffffffffffffffffffffffffffffffffff1673ffffffffffffffffffffffffffffffffffffffff1681526020019081526020016000209050600015158160000160009054906101000a900460ff16151514611663576040517f08c379a00000000000000000000000000000000000000000000000000000000081526004018080602001828103825260138152602001807f766f74657220616c726561647920766f7465640000000000000000000000000081525060200191505060405180910390fd5b6000600160009054906101000a900473ffffffffffffffffffffffffffffffffffffffff1673ffffffffffffffffffffffffffffffffffffffff166370a08231876040518263ffffffff167c0100000000000000000000000000000000000000000000000000000000028152600401808273ffffffffffffffffffffffffffffffffffffffff16815260200191505060206040518083038186803b15801561170a57600080fd5b505afa15801561171e573d6000803e3d6000fd5b505050506040513d602081101561173457600080fd5b81019080805190602001909291905050509050831561175b57808360040181905550611765565b8083600501819055505b82600901869080600181540180825580915050600190039060005260206000200160009091909190916101000a81548173ffffffffffffffffffffffffffffffffffffffff021916908373ffffffffffffffffffffffffffffffffffffffff16021790555060018260000160006101000a81548160ff021916908315150217905550838260000160016101000a81548160ff021916908315150217905550808260010181905550600160009054906101000a900473ffffffffffffffffffffffffffffffffffffffff1673ffffffffffffffffffffffffffffffffffffffff1663e724529c8760016040518363ffffffff167c0100000000000000000000000000000000000000000000000000000000028152600401808373ffffffffffffffffffffffffffffffffffffffff168152602001821515815260200192505050600060405180830381600087803b1580156118be57600080fd5b505af11580156118d2573d6000803e3d6000fd5b505050507f65f8c50a40ae46ed6b244ba59b93d321216c9638f156760e7f851c2536a3add286868684604051808573ffffffffffffffffffffffffffffffffffffffff168152602001848152602001831515815260200182815260200194505050505060405180910390a1505050505050565b6000620186a0905090565b611958611e25565b73ffffffffffffffffffffffffffffffffffffffff16611976610df9565b73ffffffffffffffffffffffffffffffffffffffff16146119ff576040517f08c379a00000000000000000000000000000000000000000000000000000000081526004018080602001828103825260208152602001807f4f776e61626c653a2063616c6c6572206973206e6f7420746865206f776e657281525060200191505060405180910390fd5b600073ffffffffffffffffffffffffffffffffffffffff168173ffffffffffffffffffffffffffffffffffffffff161415611a85576040517f08c379a0000000000000000000000000000000000000000000000000000000008152600401808060200182810382526026815260200180611eec6026913960400191505060405180910390fd5b8073ffffffffffffffffffffffffffffffffffffffff1660008054906101000a900473ffffffffffffffffffffffffffffffffffffffff1673ffffffffffffffffffffffffffffffffffffffff167f8be0079c531659141344cd1fd0a4f28419497f9722a3daafe3b4186f6b6457e060405160405180910390a3806000806101000a81548173ffffffffffffffffffffffffffffffffffffffff021916908373ffffffffffffffffffffffffffffffffffffffff16021790555050565b611b4a611e25565b73ffffffffffffffffffffffffffffffffffffffff16611b68610df9565b73ffffffffffffffffffffffffffffffffffffffff1614611bf1576040517f08c379a00000000000000000000000000000000000000000000000000000000081526004018080602001828103825260208152602001807f4f776e61626c653a2063616c6c6572206973206e6f7420746865206f776e657281525060200191505060405180910390fd5b60036006811115611bfe57fe5b611c078261084e565b6006811115611c1257fe5b141580611c3e575060026006811115611c2757fe5b611c308261084e565b6006811115611c3b57fe5b14155b611c93576040517f08c379a0000000000000000000000000000000000000000000000000000000008152600401808060200182810382526031815260200180611f916031913960400191505060405180910390fd5b600060036000838152602001908152602001600020905060018160060160016101000a81548160ff02191690831515021790555060005b8160090180549050811015611de957600160009054906101000a900473ffffffffffffffffffffffffffffffffffffffff1673ffffffffffffffffffffffffffffffffffffffff1663e724529c836009018381548110611d2657fe5b9060005260206000200160009054906101000a900473ffffffffffffffffffffffffffffffffffffffff1660006040518363ffffffff167c0100000000000000000000000000000000000000000000000000000000028152600401808373ffffffffffffffffffffffffffffffffffffffff168152602001821515815260200192505050600060405180830381600087803b158015611dc457600080fd5b505af1158015611dd8573d6000803e3d6000fd5b505050508080600101915050611cca565b507f712ae1383f79ac853f8d882153778e0260ef8f03b504e2866e0593e04d2b291f826040518082815260200191505060405180910390a15050565b600033905090565b828054600181600116156101000203166002900490600052602060002090601f016020900481019282601f10611e6e57805160ff1916838001178555611e9c565b82800160010185558215611e9c579182015b82811115611e9b578251825591602001919060010190611e80565b5b509050611ea99190611ead565b5090565b5b80821115611ec6576000816000905550600101611eae565b509056fe466f756e6420616e206163746976652070726f706f73616c2066726f6d20796f754f776e61626c653a206e6577206f776e657220697320746865207a65726f2061646472657373466f756e6420612070656e64696e672070726f706f73616c2066726f6d20796f754e6f2073652070756564652063616e63656c617220756e612070726f707565737461207175652079612066756520656a6563757461646150726f706f73657220766f7465732062656c6f772070726f706f73616c207468726573686f6c64566f746f73206e6f20737566696369656e746573207061726120656a65637574617220657374612070726f707565737461a2646970667358221220d638b74b4c42749e6f53857d662d9eaab2caec6c18c5e1b4da61e2fe31c6b38a64736f6c63430007000033",
  "immutableReferences": {},
  "source": "pragma solidity ^0.7.0;\r\nimport \"@openzeppelin/contracts/access/Ownable.sol\";\r\n\r\ncontract KryptiGob is Ownable {\r\n\r\n    string public constant name = \"Kripty Governance contract\";\r\n\r\n    function supportVotes() public pure returns (uint) { return 100000; }\r\n\r\n    function proposalThreshold() public pure returns (uint) { return 10000; }\r\n    \r\n    function votingDelay() public pure returns (uint) { return 1; } // 1 block\r\n\r\n    function votingPeriod() public pure returns (uint) { return 17280; } //3 days in blocks\r\n\r\n    KryptiInterface public Krypti;\r\n\r\n    uint public proposalCount;\r\n\r\n    struct Proposal {\r\n        uint id;\r\n        address proposer;\r\n        uint startBlock;\r\n        uint endBlock;\r\n        uint proVotes;\r\n        uint againsVotes;\r\n        bool canceled;\r\n        bool executed;\r\n        string description;\r\n        mapping (address => Receipt) receipts;\r\n        address[] keys;\r\n    }\r\n\r\n    struct Receipt {\r\n        bool hasVoted;\r\n        bool proVote;\r\n        uint votes;\r\n    }\r\n\r\n    enum ProposalState {\r\n        Pending,\r\n        Active,\r\n        Canceled,\r\n        Defeated,\r\n        Succeeded,\r\n        Expired,\r\n        Executed\r\n    }\r\n\r\n    mapping (uint => Proposal) public proposals;\r\n    mapping (address => uint) public lastestProposalIds;\r\n\r\n    event ProposalCreated(uint id, address proposer, uint startBlock, uint endBlock, string description);\r\n    event Vote(address voter, uint proposalId, bool proVote, uint votes);\r\n    event ProposalCanceled(uint id);\r\n    event ProposalExecuted(uint id);\r\n\r\n    constructor(address krypti_) public {\r\n        Krypti = KryptiInterface(krypti_);\r\n    }\r\n\r\n    function propose(string memory description_) public returns (uint) {\r\n        require(Krypti.balanceOf(msg.sender) >= proposalThreshold(), \"Proposer votes below proposal threshold\");\r\n\r\n        uint lastestProposalId = lastestProposalIds[msg.sender];\r\n        if (lastestProposalId != 0) {\r\n            ProposalState proposalState = state(lastestProposalId);\r\n            require(proposalState != ProposalState.Active, \"Found an active proposal from you\");\r\n            require(proposalState != ProposalState.Pending, \"Found a pending proposal from you\");\r\n        }\r\n        \r\n        uint startBlock = block.number + votingDelay();\r\n        uint endBlock = startBlock + votingPeriod();\r\n        proposalCount++;\r\n\r\n        proposals[proposalCount].id = proposalCount;\r\n        proposals[proposalCount].proposer = msg.sender;\r\n        proposals[proposalCount].startBlock = startBlock;\r\n        proposals[proposalCount].endBlock = endBlock;\r\n        proposals[proposalCount].proVotes = 0;\r\n        proposals[proposalCount].againsVotes = 0;\r\n        proposals[proposalCount].canceled = false;\r\n        proposals[proposalCount].executed = false;\r\n        proposals[proposalCount].description = description_;\r\n\r\n        lastestProposalIds[proposals[proposalCount].proposer] = proposals[proposalCount].id;\r\n        Krypti.freezeAccount(msg.sender, true);\r\n\r\n        emit ProposalCreated(proposals[proposalCount].id, msg.sender, startBlock, endBlock, description_);\r\n        return proposals[proposalCount].id;\r\n    }\r\n\r\n    function execute(uint proposalId) public payable onlyOwner() {\r\n        //TODO: agregar require de estado vs supportVotes\r\n        require(state(proposalId) != ProposalState.Defeated || state(proposalId) != ProposalState.Canceled, \"Votos no suficientes para ejecutar esta propuesta\");\r\n        Proposal storage proposal = proposals[proposalId];\r\n\r\n        proposal.executed = true;\r\n\r\n        for(uint i = 0; i < proposal.keys.length ; i++){\r\n            Krypti.freezeAccount(proposal.keys[i] , false);\r\n        }\r\n\r\n        emit ProposalExecuted(proposalId);\r\n    }\r\n\r\n    function cancel(uint proposalId) public onlyOwner() {\r\n        require(state(proposalId) != ProposalState.Executed || state(proposalId) != ProposalState.Succeeded, \"No se puede cancelar una propuesta que ya fue ejecutada\");\r\n\r\n        Proposal storage proposal = proposals[proposalId];\r\n        proposal.canceled = true;\r\n\r\n        for(uint i = 0; i < proposal.keys.length; i++){\r\n            Krypti.freezeAccount(proposal.keys[i] , false);\r\n        }\r\n\r\n        emit ProposalCanceled(proposalId);\r\n    }\r\n\r\n    function state(uint proposalId) public view returns (ProposalState) {\r\n        require(proposalCount >= proposalId && proposalId > 0, \"invalid proposal id\");\r\n        Proposal storage proposal = proposals[proposalId];\r\n        if (proposal.canceled) {\r\n            return ProposalState.Canceled;\r\n        } else if (block.number <= proposal.startBlock) {\r\n            return ProposalState.Pending;\r\n        } else if (block.number <= proposal.endBlock) {\r\n            return ProposalState.Active;\r\n        } else if (proposal.proVotes <= proposal.againsVotes || proposal.proVotes < supportVotes()) {\r\n            return ProposalState.Defeated;\r\n        } else if (proposal.executed) {\r\n            return ProposalState.Executed;\r\n        //} else if (block.timestamp >= ) TODO: retornar expired\r\n        } else {\r\n            return ProposalState.Succeeded;\r\n        }\r\n    }\r\n\r\n    function vote(address voter, uint proposalId, bool support) public {\r\n        require(state(proposalId) == ProposalState.Active, \"Voting is closed\");\r\n        Proposal storage proposal = proposals[proposalId];\r\n        Receipt storage receipt = proposal.receipts[voter];\r\n        require(receipt.hasVoted == false , \"voter already voted\");\r\n        \r\n        uint votes = Krypti.balanceOf(voter);\r\n\r\n        if (support) {\r\n            proposal.proVotes = votes;\r\n        } else {\r\n            proposal.againsVotes = votes;\r\n        }\r\n        proposal.keys.push(voter);\r\n\r\n        receipt.hasVoted = true;\r\n        receipt.proVote = support;\r\n        receipt.votes = votes;\r\n\r\n        Krypti.freezeAccount(voter, true);\r\n\r\n        emit Vote(voter, proposalId, support, votes);\r\n\r\n    }\r\n \r\n}\r\n\r\ninterface KryptiInterface {\r\n        function balanceOf(address account) external view returns (uint);\r\n        function freezeAccount(address target, bool freeze) external;\r\n}\r\n",
  "sourcePath": "I:/Users/Luis/Documents/GitHub/blockchain/krypti/contracts/KryptiGob.sol",
  "compiler": {
    "name": "solc",
    "version": "0.7.0+commit.9e61f92b.Emscripten.clang"
  },
  "schemaVersion": "3.3.4",
  "updatedAt": "2021-04-06T16:31:29.444Z",
  "devdoc": {
    "kind": "dev",
    "methods": {
      "owner()": {
        "details": "Returns the address of the current owner."
      },
      "renounceOwnership()": {
        "details": "Leaves the contract without owner. It will not be possible to call `onlyOwner` functions anymore. Can only be called by the current owner. NOTE: Renouncing ownership will leave the contract without an owner, thereby removing any functionality that is only available to the owner."
      },
      "transferOwnership(address)": {
        "details": "Transfers ownership of the contract to a new account (`newOwner`). Can only be called by the current owner."
      }
    },
    "version": 1
  },
  "userdoc": {
    "kind": "user",
    "methods": {},
    "version": 1
  }
}